{
  "contractName": "JAV_NFT",
  "abi": [
    {
      "inputs": [],
      "stateMutability": "nonpayable",
      "type": "constructor"
    },
    {
      "anonymous": false,
      "inputs": [
        {
          "indexed": true,
          "internalType": "address",
          "name": "owner",
          "type": "address"
        },
        {
          "indexed": true,
          "internalType": "address",
          "name": "approved",
          "type": "address"
        },
        {
          "indexed": true,
          "internalType": "uint256",
          "name": "tokenId",
          "type": "uint256"
        }
      ],
      "name": "Approval",
      "type": "event"
    },
    {
      "anonymous": false,
      "inputs": [
        {
          "indexed": true,
          "internalType": "address",
          "name": "owner",
          "type": "address"
        },
        {
          "indexed": true,
          "internalType": "address",
          "name": "operator",
          "type": "address"
        },
        {
          "indexed": false,
          "internalType": "bool",
          "name": "approved",
          "type": "bool"
        }
      ],
      "name": "ApprovalForAll",
      "type": "event"
    },
    {
      "anonymous": false,
      "inputs": [
        {
          "indexed": true,
          "internalType": "address",
          "name": "from",
          "type": "address"
        },
        {
          "indexed": true,
          "internalType": "address",
          "name": "to",
          "type": "address"
        },
        {
          "indexed": true,
          "internalType": "uint256",
          "name": "tokenId",
          "type": "uint256"
        }
      ],
      "name": "Transfer",
      "type": "event"
    },
    {
      "anonymous": false,
      "inputs": [
        {
          "indexed": true,
          "internalType": "uint256",
          "name": "_tokenId",
          "type": "uint256"
        },
        {
          "indexed": true,
          "internalType": "address",
          "name": "_owner",
          "type": "address"
        }
      ],
      "name": "createNFT",
      "type": "event"
    },
    {
      "inputs": [],
      "name": "JavTokenContract",
      "outputs": [
        {
          "internalType": "contract JavToken",
          "name": "",
          "type": "address"
        }
      ],
      "stateMutability": "view",
      "type": "function",
      "constant": true
    },
    {
      "inputs": [
        {
          "internalType": "address",
          "name": "to",
          "type": "address"
        },
        {
          "internalType": "uint256",
          "name": "tokenId",
          "type": "uint256"
        }
      ],
      "name": "approve",
      "outputs": [],
      "stateMutability": "nonpayable",
      "type": "function"
    },
    {
      "inputs": [
        {
          "internalType": "address",
          "name": "owner",
          "type": "address"
        }
      ],
      "name": "balanceOf",
      "outputs": [
        {
          "internalType": "uint256",
          "name": "",
          "type": "uint256"
        }
      ],
      "stateMutability": "view",
      "type": "function",
      "constant": true
    },
    {
      "inputs": [
        {
          "internalType": "uint256",
          "name": "tokenId",
          "type": "uint256"
        }
      ],
      "name": "getApproved",
      "outputs": [
        {
          "internalType": "address",
          "name": "",
          "type": "address"
        }
      ],
      "stateMutability": "view",
      "type": "function",
      "constant": true
    },
    {
      "inputs": [
        {
          "internalType": "address",
          "name": "owner",
          "type": "address"
        },
        {
          "internalType": "address",
          "name": "operator",
          "type": "address"
        }
      ],
      "name": "isApprovedForAll",
      "outputs": [
        {
          "internalType": "bool",
          "name": "",
          "type": "bool"
        }
      ],
      "stateMutability": "view",
      "type": "function",
      "constant": true
    },
    {
      "inputs": [],
      "name": "name",
      "outputs": [
        {
          "internalType": "string",
          "name": "",
          "type": "string"
        }
      ],
      "stateMutability": "view",
      "type": "function",
      "constant": true
    },
    {
      "inputs": [
        {
          "internalType": "uint256",
          "name": "tokenId",
          "type": "uint256"
        }
      ],
      "name": "ownerOf",
      "outputs": [
        {
          "internalType": "address",
          "name": "",
          "type": "address"
        }
      ],
      "stateMutability": "view",
      "type": "function",
      "constant": true
    },
    {
      "inputs": [
        {
          "internalType": "address",
          "name": "from",
          "type": "address"
        },
        {
          "internalType": "address",
          "name": "to",
          "type": "address"
        },
        {
          "internalType": "uint256",
          "name": "tokenId",
          "type": "uint256"
        }
      ],
      "name": "safeTransferFrom",
      "outputs": [],
      "stateMutability": "nonpayable",
      "type": "function"
    },
    {
      "inputs": [
        {
          "internalType": "address",
          "name": "from",
          "type": "address"
        },
        {
          "internalType": "address",
          "name": "to",
          "type": "address"
        },
        {
          "internalType": "uint256",
          "name": "tokenId",
          "type": "uint256"
        },
        {
          "internalType": "bytes",
          "name": "data",
          "type": "bytes"
        }
      ],
      "name": "safeTransferFrom",
      "outputs": [],
      "stateMutability": "nonpayable",
      "type": "function"
    },
    {
      "inputs": [
        {
          "internalType": "address",
          "name": "operator",
          "type": "address"
        },
        {
          "internalType": "bool",
          "name": "approved",
          "type": "bool"
        }
      ],
      "name": "setApprovalForAll",
      "outputs": [],
      "stateMutability": "nonpayable",
      "type": "function"
    },
    {
      "inputs": [
        {
          "internalType": "bytes4",
          "name": "interfaceId",
          "type": "bytes4"
        }
      ],
      "name": "supportsInterface",
      "outputs": [
        {
          "internalType": "bool",
          "name": "",
          "type": "bool"
        }
      ],
      "stateMutability": "view",
      "type": "function",
      "constant": true
    },
    {
      "inputs": [],
      "name": "symbol",
      "outputs": [
        {
          "internalType": "string",
          "name": "",
          "type": "string"
        }
      ],
      "stateMutability": "view",
      "type": "function",
      "constant": true
    },
    {
      "inputs": [
        {
          "internalType": "address",
          "name": "from",
          "type": "address"
        },
        {
          "internalType": "address",
          "name": "to",
          "type": "address"
        },
        {
          "internalType": "uint256",
          "name": "tokenId",
          "type": "uint256"
        }
      ],
      "name": "transferFrom",
      "outputs": [],
      "stateMutability": "nonpayable",
      "type": "function"
    },
    {
      "inputs": [],
      "name": "current",
      "outputs": [
        {
          "internalType": "uint256",
          "name": "",
          "type": "uint256"
        }
      ],
      "stateMutability": "view",
      "type": "function",
      "constant": true
    },
    {
      "inputs": [
        {
          "internalType": "uint256",
          "name": "tokenId",
          "type": "uint256"
        }
      ],
      "name": "tokenURI",
      "outputs": [
        {
          "internalType": "string",
          "name": "",
          "type": "string"
        }
      ],
      "stateMutability": "view",
      "type": "function",
      "constant": true
    },
    {
      "inputs": [
        {
          "internalType": "uint256",
          "name": "tokenId",
          "type": "uint256"
        }
      ],
      "name": "getJavsGene",
      "outputs": [
        {
          "internalType": "uint256[3]",
          "name": "",
          "type": "uint256[3]"
        }
      ],
      "stateMutability": "view",
      "type": "function",
      "constant": true
    },
    {
      "inputs": [
        {
          "internalType": "uint256",
          "name": "tokenId",
          "type": "uint256"
        }
      ],
      "name": "getJavsAccessory",
      "outputs": [
        {
          "internalType": "uint256[4]",
          "name": "",
          "type": "uint256[4]"
        }
      ],
      "stateMutability": "view",
      "type": "function",
      "constant": true
    },
    {
      "inputs": [
        {
          "internalType": "uint256",
          "name": "tokenId",
          "type": "uint256"
        }
      ],
      "name": "getJavsCreate_at",
      "outputs": [
        {
          "internalType": "uint256",
          "name": "",
          "type": "uint256"
        }
      ],
      "stateMutability": "view",
      "type": "function",
      "constant": true
    },
    {
      "inputs": [
        {
          "internalType": "string",
          "name": "_tokenURI",
          "type": "string"
        },
        {
          "internalType": "uint256[3]",
          "name": "_gene",
          "type": "uint256[3]"
        },
        {
          "internalType": "uint256[4]",
          "name": "_accessory",
          "type": "uint256[4]"
        }
      ],
      "name": "pickup",
      "outputs": [
        {
          "internalType": "uint256",
          "name": "",
          "type": "uint256"
        }
      ],
      "stateMutability": "nonpayable",
      "type": "function"
    },
    {
      "inputs": [
        {
          "internalType": "string",
          "name": "_tokenURI",
          "type": "string"
        },
        {
          "internalType": "uint256",
          "name": "NFTid1",
          "type": "uint256"
        },
        {
          "internalType": "uint256",
          "name": "NFTid2",
          "type": "uint256"
        },
        {
          "internalType": "uint256[3]",
          "name": "_gene",
          "type": "uint256[3]"
        },
        {
          "internalType": "uint256[4]",
          "name": "_accessory",
          "type": "uint256[4]"
        }
      ],
      "name": "fusionJavs",
      "outputs": [
        {
          "internalType": "uint256",
          "name": "",
          "type": "uint256"
        }
      ],
      "stateMutability": "nonpayable",
      "type": "function"
    },
    {
      "inputs": [
        {
          "internalType": "uint256[15]",
          "name": "_nums",
          "type": "uint256[15]"
        }
      ],
      "name": "gacha",
      "outputs": [
        {
          "internalType": "uint256[3]",
          "name": "",
          "type": "uint256[3]"
        }
      ],
      "stateMutability": "view",
      "type": "function",
      "constant": true
    },
    {
      "inputs": [
        {
          "internalType": "uint256",
          "name": "NFT_ID1",
          "type": "uint256"
        },
        {
          "internalType": "uint256",
          "name": "NFT_ID2",
          "type": "uint256"
        },
        {
          "internalType": "uint256[4]",
          "name": "_nums",
          "type": "uint256[4]"
        },
        {
          "internalType": "uint8",
          "name": "body",
          "type": "uint8"
        }
      ],
      "name": "fusion",
      "outputs": [
        {
          "internalType": "uint256",
          "name": "",
          "type": "uint256"
        }
      ],
      "stateMutability": "view",
      "type": "function",
      "constant": true
    },
    {
      "inputs": [
        {
          "internalType": "uint256[4]",
          "name": "_nums",
          "type": "uint256[4]"
        }
      ],
      "name": "getAcce",
      "outputs": [
        {
          "internalType": "uint256[4]",
          "name": "",
          "type": "uint256[4]"
        }
      ],
      "stateMutability": "pure",
      "type": "function",
      "constant": true
    }
  ],
  "bytecode": "0x60806040526040518060e00160405280600160ff168152602001600160ff168152602001600160ff168152602001600160ff168152602001600660ff168152602001600660ff168152602001601860ff16815250600a90600762000065929190620001ba565b506040518060600160405280600260ff168152602001600260ff168152602001600160ff1681525060119060036200009f92919062000204565b506040518060600160405280600160ff168152602001600160ff168152602001600160ff168152506014906003620000d992919062000204565b506040518060600160405280600160ff168152602001600160ff168152602001600160ff1681525060179060036200011392919062000204565b503480156200012157600080fd5b506040518060400160405280600a81526020017f6a61766a6f6e674e4654000000000000000000000000000000000000000000008152506040518060400160405280600481526020017f4a4e46540000000000000000000000000000000000000000000000000000000081525081600090816200019f9190620004e7565b508060019081620001b19190620004e7565b505050620005ce565b8260078101928215620001f1579160200282015b82811115620001f0578251829060ff16905591602001919060010190620001ce565b5b5090506200020091906200024e565b5090565b82600381019282156200023b579160200282015b828111156200023a578251829060ff1690559160200191906001019062000218565b5b5090506200024a91906200024e565b5090565b5b80821115620002695760008160009055506001016200024f565b5090565b600081519050919050565b7f4e487b7100000000000000000000000000000000000000000000000000000000600052604160045260246000fd5b7f4e487b7100000000000000000000000000000000000000000000000000000000600052602260045260246000fd5b60006002820490506001821680620002ef57607f821691505b602082108103620003055762000304620002a7565b5b50919050565b60008190508160005260206000209050919050565b60006020601f8301049050919050565b600082821b905092915050565b6000600883026200036f7fffffffffffffffffffffffffffffffffffffffffffffffffffffffffffffffff8262000330565b6200037b868362000330565b95508019841693508086168417925050509392505050565b6000819050919050565b6000819050919050565b6000620003c8620003c2620003bc8462000393565b6200039d565b62000393565b9050919050565b6000819050919050565b620003e483620003a7565b620003fc620003f382620003cf565b8484546200033d565b825550505050565b600090565b6200041362000404565b62000420818484620003d9565b505050565b5b8181101562000448576200043c60008262000409565b60018101905062000426565b5050565b601f821115620004975762000461816200030b565b6200046c8462000320565b810160208510156200047c578190505b620004946200048b8562000320565b83018262000425565b50505b505050565b600082821c905092915050565b6000620004bc600019846008026200049c565b1980831691505092915050565b6000620004d78383620004a9565b9150826002028217905092915050565b620004f2826200026d565b67ffffffffffffffff8111156200050e576200050d62000278565b5b6200051a8254620002d6565b620005278282856200044c565b600060209050601f8311600181146200055f57600084156200054a578287015190505b620005568582620004c9565b865550620005c6565b601f1984166200056f866200030b565b60005b82811015620005995784890151825560018201915060208501945060208101905062000572565b86831015620005b95784890151620005b5601f891682620004a9565b8355505b6001600288020188555050505b505050505050565b614a8980620005de6000396000f3fe608060405234801561001057600080fd5b506004361061014d5760003560e01c80637945b489116100c3578063c87b56dd1161007c578063c87b56dd146103e8578063d1ae16da14610418578063dcefb01814610436578063e985e9c514610466578063f260e47014610496578063fe99fc6b146104c65761014d565b80637945b48914610314578063887ace551461034457806395d89b41146103745780639fa6a6e314610392578063a22cb465146103b0578063b88d4fde146103cc5761014d565b806323b872dd1161011557806323b872dd1461021c57806342842e0e1461023857806349124ee4146102545780636352211e1461028457806370a08231146102b457806377178b19146102e45761014d565b806301ffc9a71461015257806306fdde0314610182578063081812fc146101a0578063095ea7b3146101d05780631609c083146101ec575b600080fd5b61016c6004803603810190610167919061306e565b6104f6565b60405161017991906130b6565b60405180910390f35b61018a6105d8565b6040516101979190613161565b60405180910390f35b6101ba60048036038101906101b591906131b9565b61066a565b6040516101c79190613227565b60405180910390f35b6101ea60048036038101906101e5919061326e565b6106b0565b005b6102066004803603810190610201919061354a565b6107c7565b60405161021391906135f1565b60405180910390f35b6102366004803603810190610231919061360c565b6108e4565b005b610252600480360381019061024d919061360c565b610944565b005b61026e600480360381019061026991906131b9565b610964565b60405161027b919061370a565b60405180910390f35b61029e600480360381019061029991906131b9565b6109c5565b6040516102ab9190613227565b60405180910390f35b6102ce60048036038101906102c99190613725565b610a4b565b6040516102db91906135f1565b60405180910390f35b6102fe60048036038101906102f99190613803565b610b02565b60405161030b919061370a565b60405180910390f35b61032e6004803603810190610329919061386a565b610f59565b60405161033b91906135f1565b60405180910390f35b61035e600480360381019061035991906131b9565b611300565b60405161036b9190613955565b60405180910390f35b61037c611361565b6040516103899190613161565b60405180910390f35b61039a6113f3565b6040516103a791906135f1565b60405180910390f35b6103ca60048036038101906103c5919061399c565b6113fd565b005b6103e660048036038101906103e19190613a7d565b611413565b005b61040260048036038101906103fd91906131b9565b611475565b60405161040f9190613161565b60405180910390f35b61042061151a565b60405161042d9190613b5f565b60405180910390f35b610450600480360381019061044b91906131b9565b611540565b60405161045d91906135f1565b60405180910390f35b610480600480360381019061047b9190613b7a565b611560565b60405161048d91906130b6565b60405180910390f35b6104b060048036038101906104ab9190613bba565b6115f4565b6040516104bd91906135f1565b60405180910390f35b6104e060048036038101906104db9190613c2a565b6116b5565b6040516104ed9190613955565b60405180910390f35b60007f80ac58cd000000000000000000000000000000000000000000000000000000007bffffffffffffffffffffffffffffffffffffffffffffffffffffffff1916827bffffffffffffffffffffffffffffffffffffffffffffffffffffffff191614806105c157507f5b5e139f000000000000000000000000000000000000000000000000000000007bffffffffffffffffffffffffffffffffffffffffffffffffffffffff1916827bffffffffffffffffffffffffffffffffffffffffffffffffffffffff1916145b806105d157506105d08261183a565b5b9050919050565b6060600080546105e790613c86565b80601f016020809104026020016040519081016040528092919081815260200182805461061390613c86565b80156106605780601f1061063557610100808354040283529160200191610660565b820191906000526020600020905b81548152906001019060200180831161064357829003601f168201915b5050505050905090565b6000610675826118a4565b6004600083815260200190815260200160002060009054906101000a900473ffffffffffffffffffffffffffffffffffffffff169050919050565b60006106bb826109c5565b90508073ffffffffffffffffffffffffffffffffffffffff168373ffffffffffffffffffffffffffffffffffffffff160361072b576040517f08c379a000000000000000000000000000000000000000000000000000000000815260040161072290613d29565b60405180910390fd5b8073ffffffffffffffffffffffffffffffffffffffff1661074a6118ef565b73ffffffffffffffffffffffffffffffffffffffff1614806107795750610778816107736118ef565b611560565b5b6107b8576040517f08c379a00000000000000000000000000000000000000000000000000000000081526004016107af90613dbb565b60405180910390fd5b6107c283836118f7565b505050565b60006107d2856109c5565b73ffffffffffffffffffffffffffffffffffffffff163373ffffffffffffffffffffffffffffffffffffffff161461083f576040517f08c379a000000000000000000000000000000000000000000000000000000000815260040161083690613e27565b60405180910390fd5b610848846109c5565b73ffffffffffffffffffffffffffffffffffffffff163373ffffffffffffffffffffffffffffffffffffffff16146108b5576040517f08c379a00000000000000000000000000000000000000000000000000000000081526004016108ac90613e27565b60405180910390fd5b6108be856119b0565b6108c7846119b0565b60006108d533888686611a19565b90508091505095945050505050565b6108f56108ef6118ef565b82611b1b565b610934576040517f08c379a000000000000000000000000000000000000000000000000000000000815260040161092b90613eb9565b60405180910390fd5b61093f838383611bb0565b505050565b61095f83838360405180602001604052806000815250611413565b505050565b61096c612e8e565b600960008381526020019081526020016000206000016003806020026040519081016040528092919082600380156109b9576020028201915b8154815260200190600101908083116109a5575b50505050509050919050565b6000806109d183611ea5565b9050600073ffffffffffffffffffffffffffffffffffffffff168173ffffffffffffffffffffffffffffffffffffffff1603610a42576040517f08c379a0000000000000000000000000000000000000000000000000000000008152600401610a3990613f25565b60405180910390fd5b80915050919050565b60008073ffffffffffffffffffffffffffffffffffffffff168273ffffffffffffffffffffffffffffffffffffffff1603610abb576040517f08c379a0000000000000000000000000000000000000000000000000000000008152600401610ab290613fb7565b60405180910390fd5b600360008373ffffffffffffffffffffffffffffffffffffffff1673ffffffffffffffffffffffffffffffffffffffff168152602001908152602001600020549050919050565b610b0a612e8e565b60006040518060600160405280610b38856000600f8110610b2e57610b2d613fd7565b5b6020020151611ee2565b8152602001610b5e856001600f8110610b5457610b53613fd7565b5b6020020151611ee2565b8152602001610b84856002600f8110610b7a57610b79613fd7565b5b6020020151611ee2565b815250905060006040518060600160405280610bb7866003600f8110610bad57610bac613fd7565b5b6020020151611f04565b8152602001610bdd866004600f8110610bd357610bd2613fd7565b5b6020020151611f04565b8152602001610c03866005600f8110610bf957610bf8613fd7565b5b6020020151611f04565b815250905060006040518060600160405280610c36876006600f8110610c2c57610c2b613fd7565b5b6020020151611f04565b8152602001610c5c876007600f8110610c5257610c51613fd7565b5b6020020151611f04565b8152602001610c82876008600f8110610c7857610c77613fd7565b5b6020020151611f04565b815250905060006040518060600160405280610cb5886009600f8110610cab57610caa613fd7565b5b6020020151611f04565b8152602001610cdb88600a600f8110610cd157610cd0613fd7565b5b6020020151611f04565b8152602001610d0188600b600f8110610cf757610cf6613fd7565b5b6020020151611f04565b815250905060006040518060600160405280610d3489600c600f8110610d2a57610d29613fd7565b5b6020020151611f04565b8152602001610d5a89600d600f8110610d5057610d4f613fd7565b5b6020020151611f04565b8152602001610d8089600e600f8110610d7657610d75613fd7565b5b6020020151611f04565b8152509050610d8d612e8e565b60005b6003811015610f4a57828160038110610dac57610dab613fd7565b5b6020020151611000868360038110610dc757610dc6613fd7565b5b6020020151610dd69190614035565b6301000000868460038110610dee57610ded613fd7565b5b6020020151610dfd9190614035565b641000000000898560038110610e1657610e15613fd7565b5b6020020151610e259190614035565b6601000000000000898660038110610e4057610e3f613fd7565b5b6020020151610e4f9190614035565b6710000000000000008b8760038110610e6b57610e6a613fd7565b5b6020020151610e7a9190614035565b69010000000000000000008c8860038110610e9857610e97613fd7565b5b6020020151610ea79190614035565b6a10000000000000000000008e8960038110610ec657610ec5613fd7565b5b6020020151610ed59190614035565b610edf919061408f565b610ee9919061408f565b610ef3919061408f565b610efd919061408f565b610f07919061408f565b610f11919061408f565b610f1b919061408f565b828260038110610f2e57610f2d613fd7565b5b6020020181815250508080610f42906140c3565b915050610d90565b50809650505050505050919050565b600080610f6586610964565b8360ff1660038110610f7a57610f79613fd7565b5b602002015190506000610f8c86610964565b8460ff1660038110610fa157610fa0613fd7565b5b60200201519050610fb0612eb0565b610fb8612eb0565b6000600190505b60016007610fcd919061408f565b8110156110c5576003600182610fe3919061410b565b610fed9190614035565b600382610ffa9190614035565b611004919061410b565b60106110109190614272565b8561101b91906142ec565b83600183611029919061410b565b6007811061103a57611039613fd7565b5b6020020181815250506003600182611052919061410b565b61105c9190614035565b6003826110699190614035565b611073919061410b565b601061107f9190614272565b8461108a91906142ec565b82600183611098919061410b565b600781106110a9576110a8613fd7565b5b60200201818152505080806110bd906140c3565b915050610fbf565b5060006110f68360648a6000600481106110e2576110e1613fd7565b5b60200201516110f191906142ec565b611f26565b905060006111288360648b60016004811061111457611113613fd7565b5b602002015161112391906142ec565b611f26565b9050600061115b838360648d60026004811061114757611146613fd7565b5b602002015161115691906142ec565b611fb9565b9050600061118c60648c60036004811061117857611177613fd7565b5b602002015161118791906142ec565b611ee2565b90506000856004600781106111a4576111a3613fd7565b5b6020020151611000876005600781106111c0576111bf613fd7565b5b60200201516111cf9190614035565b6301000000896004600781106111e8576111e7613fd7565b5b60200201516111f79190614035565b6410000000008a60056007811061121157611210613fd7565b5b60200201516112209190614035565b66010000000000008a60066007811061123c5761123b613fd7565b5b602002015161124b9190614035565b6710000000000000008c60066007811061126857611267613fd7565b5b60200201516112779190614035565b69010000000000000000008961128d9190614035565b6a1000000000000000000000896112a49190614035565b6112ae919061408f565b6112b8919061408f565b6112c2919061408f565b6112cc919061408f565b6112d6919061408f565b6112e0919061408f565b6112ea919061408f565b9050809950505050505050505050949350505050565b611308612ed2565b60096000838152602001908152602001600020600301600480602002604051908101604052809291908260048015611355576020028201915b815481526020019060010190808311611341575b50505050509050919050565b60606001805461137090613c86565b80601f016020809104026020016040519081016040528092919081815260200182805461139c90613c86565b80156113e95780601f106113be576101008083540402835291602001916113e9565b820191906000526020600020905b8154815290600101906020018083116113cc57829003601f168201915b5050505050905090565b6000600754905090565b61140f6114086118ef565b83836126eb565b5050565b61142461141e6118ef565b83611b1b565b611463576040517f08c379a000000000000000000000000000000000000000000000000000000000815260040161145a90613eb9565b60405180910390fd5b61146f84848484612857565b50505050565b606060086000838152602001908152602001600020805461149590613c86565b80601f01602080910402602001604051908101604052809291908181526020018280546114c190613c86565b801561150e5780601f106114e35761010080835404028352916020019161150e565b820191906000526020600020905b8154815290600101906020018083116114f157829003601f168201915b50505050509050919050565b600660009054906101000a900473ffffffffffffffffffffffffffffffffffffffff1681565b600060096000838152602001908152602001600020600701549050919050565b6000600560008473ffffffffffffffffffffffffffffffffffffffff1673ffffffffffffffffffffffffffffffffffffffff16815260200190815260200160002060008373ffffffffffffffffffffffffffffffffffffffff1673ffffffffffffffffffffffffffffffffffffffff16815260200190815260200160002060009054906101000a900460ff16905092915050565b6000600660009054906101000a900473ffffffffffffffffffffffffffffffffffffffff1673ffffffffffffffffffffffffffffffffffffffff166323b872dd333060646040518463ffffffff1660e01b815260040161165693929190614358565b6020604051808303816000875af1158015611675573d6000803e3d6000fd5b505050506040513d601f19601f8201168201806040525081019061169991906143a4565b5060006116a833868686611a19565b9050809150509392505050565b6116bd612ed2565b6116c5612ed2565b60016010846000600481106116dd576116dc613fd7565b5b60200201516116ec91906142ec565b6101006116f9919061408f565b611703919061408f565b8160006004811061171757611716613fd7565b5b6020020181815250506001600d8460016004811061173857611737613fd7565b5b602002015161174791906142ec565b610200611754919061408f565b61175e919061408f565b8160016004811061177257611771613fd7565b5b6020020181815250506001600e8460026004811061179357611792613fd7565b5b60200201516117a291906142ec565b6103006117af919061408f565b6117b9919061408f565b816002600481106117cd576117cc613fd7565b5b6020020181815250506001600d846003600481106117ee576117ed613fd7565b5b60200201516117fd91906142ec565b61040061180a919061408f565b611814919061408f565b8160036004811061182857611827613fd7565b5b60200201818152505080915050919050565b60007f01ffc9a7000000000000000000000000000000000000000000000000000000007bffffffffffffffffffffffffffffffffffffffffffffffffffffffff1916827bffffffffffffffffffffffffffffffffffffffffffffffffffffffff1916149050919050565b6118ad816128b3565b6118ec576040517f08c379a00000000000000000000000000000000000000000000000000000000081526004016118e390613f25565b60405180910390fd5b50565b600033905090565b816004600083815260200190815260200160002060006101000a81548173ffffffffffffffffffffffffffffffffffffffff021916908373ffffffffffffffffffffffffffffffffffffffff160217905550808273ffffffffffffffffffffffffffffffffffffffff1661196a836109c5565b73ffffffffffffffffffffffffffffffffffffffff167f8c5be1e5ebec7d5bd14f71427d1e84f3dd0314c0f7b2291e5b200ac8c7c3b92560405160405180910390a45050565b6119b9816128f4565b60096000828152602001908152602001600020600080820160006119dd9190612ef4565b6003820160006119ed9190612f09565b60078201600090555050600860008281526020019081526020016000206000611a169190612f25565b50565b6000806001611a266113f3565b611a30919061408f565b905084600860008381526020019081526020016000209081611a529190614573565b5080600781905550611a648682612a3e565b8360096000838152602001908152602001600020600001906003611a89929190612f65565b508260096000838152602001908152602001600020600301906004611aaf929190612fa5565b504260096000838152602001908152602001600020600701819055508573ffffffffffffffffffffffffffffffffffffffff16817f11407ed8d92a37c76ddc993ad3fce6827392297bbf8439605bef4399994f470d60405160405180910390a380915050949350505050565b600080611b27836109c5565b90508073ffffffffffffffffffffffffffffffffffffffff168473ffffffffffffffffffffffffffffffffffffffff161480611b695750611b688185611560565b5b80611ba757508373ffffffffffffffffffffffffffffffffffffffff16611b8f8461066a565b73ffffffffffffffffffffffffffffffffffffffff16145b91505092915050565b8273ffffffffffffffffffffffffffffffffffffffff16611bd0826109c5565b73ffffffffffffffffffffffffffffffffffffffff1614611c26576040517f08c379a0000000000000000000000000000000000000000000000000000000008152600401611c1d906146b7565b60405180910390fd5b600073ffffffffffffffffffffffffffffffffffffffff168273ffffffffffffffffffffffffffffffffffffffff1603611c95576040517f08c379a0000000000000000000000000000000000000000000000000000000008152600401611c8c90614749565b60405180910390fd5b611ca0838383612c57565b8273ffffffffffffffffffffffffffffffffffffffff16611cc0826109c5565b73ffffffffffffffffffffffffffffffffffffffff1614611d16576040517f08c379a0000000000000000000000000000000000000000000000000000000008152600401611d0d906146b7565b60405180910390fd5b6004600082815260200190815260200160002060006101000a81549073ffffffffffffffffffffffffffffffffffffffff02191690556001600360008573ffffffffffffffffffffffffffffffffffffffff1673ffffffffffffffffffffffffffffffffffffffff168152602001908152602001600020600082825403925050819055506001600360008473ffffffffffffffffffffffffffffffffffffffff1673ffffffffffffffffffffffffffffffffffffffff16815260200190815260200160002060008282540192505081905550816002600083815260200190815260200160002060006101000a81548173ffffffffffffffffffffffffffffffffffffffff021916908373ffffffffffffffffffffffffffffffffffffffff160217905550808273ffffffffffffffffffffffffffffffffffffffff168473ffffffffffffffffffffffffffffffffffffffff167fddf252ad1be2c89b69c2b068fc378daa952ba7f163c4a11628f55a4df523b3ef60405160405180910390a4611ea0838383612c5c565b505050565b60006002600083815260200190815260200160002060009054906101000a900473ffffffffffffffffffffffffffffffffffffffff169050919050565b60006001600383611ef391906142ec565b611efd919061408f565b9050919050565b60006001600383611f1591906142ec565b611f1f919061408f565b9050919050565b60008060005b6007811015611fac57600a8160078110611f4957611f48613fd7565b5b015482611f56919061408f565b91506002600583611f679190614035565b611f719190614769565b841015611f9957848160078110611f8b57611f8a613fd7565b5b602002015192505050611fb3565b8080611fa4906140c3565b915050611f2c565b5060009150505b92915050565b6000600184036120b9576001830361200257600060405180606001604052808681526020018581526020018581525090506000611ff68285612c61565b905080925050506126e4565b6002830361204257600060405180606001604052808681526020018581526020016004815250905060006120368285612c61565b905080925050506126e4565b6003830361208257600060405180606001604052808681526020018581526020016005815250905060006120768285612c61565b905080925050506126e4565b6000604051806060016040528085815260200185815260200186815250905060006120ad8285612c61565b905080925050506126e4565b600284036121b7576001830361210157600060405180606001604052808681526020018581526020016004815250905060006120f58285612c61565b905080925050506126e4565b60028303612140576000604051806060016040528086815260200185815260200185815250905060006121348285612c61565b905080925050506126e4565b6003830361218057600060405180606001604052808681526020018581526020016006815250905060006121748285612c61565b905080925050506126e4565b6000604051806060016040528085815260200185815260200186815250905060006121ab8285612c61565b905080925050506126e4565b600384036122b557600183036121ff57600060405180606001604052808681526020018581526020016005815250905060006121f38285612c61565b905080925050506126e4565b6002830361223f57600060405180606001604052808681526020018581526020016006815250905060006122338285612c61565b905080925050506126e4565b6003830361227e576000604051806060016040528086815260200185815260200185815250905060006122728285612c61565b905080925050506126e4565b6000604051806060016040528085815260200185815260200186815250905060006122a98285612c61565b905080925050506126e4565b600484036124095760018314806122cc5750600283145b806122d75750600383145b15612313576000604051806060016040528086815260200186815260200185815250905060006123078285612c61565b905080925050506126e4565b60048303612352576000604051806060016040528086815260200185815260200185815250905060006123468285612c61565b905080925050506126e4565b6005830361239257600060405180606001604052808681526020018581526020016007815250905060006123868285612c61565b905080925050506126e4565b600683036123d257600060405180606001604052808681526020018581526020016008815250905060006123c68285612c61565b905080925050506126e4565b6000604051806060016040528085815260200185815260200186815250905060006123fd8285612c61565b905080925050506126e4565b6005840361255d5760018314806124205750600283145b8061242b5750600383145b156124675760006040518060600160405280868152602001868152602001858152509050600061245b8285612c61565b905080925050506126e4565b600483036124a7576000604051806060016040528086815260200185815260200160078152509050600061249b8285612c61565b905080925050506126e4565b600583036124e6576000604051806060016040528086815260200185815260200185815250905060006124da8285612c61565b905080925050506126e4565b60068303612526576000604051806060016040528086815260200185815260200160098152509050600061251a8285612c61565b905080925050506126e4565b6000604051806060016040528085815260200185815260200186815250905060006125518285612c61565b905080925050506126e4565b600684036126b15760018314806125745750600283145b8061257f5750600383145b156125bb576000604051806060016040528086815260200186815260200185815250905060006125af8285612c61565b905080925050506126e4565b600483036125fb57600060405180606001604052808681526020018581526020016008815250905060006125ef8285612c61565b905080925050506126e4565b6005830361263b576000604051806060016040528086815260200185815260200160098152509050600061262f8285612c61565b905080925050506126e4565b6006830361267a5760006040518060600160405280868152602001858152602001858152509050600061266e8285612c61565b905080925050506126e4565b6000604051806060016040528085815260200185815260200186815250905060006126a58285612c61565b905080925050506126e4565b6000604051806060016040528085815260200185815260200186815250905060006126dc8285612c61565b905080925050505b9392505050565b8173ffffffffffffffffffffffffffffffffffffffff168373ffffffffffffffffffffffffffffffffffffffff1603612759576040517f08c379a0000000000000000000000000000000000000000000000000000000008152600401612750906147e6565b60405180910390fd5b80600560008573ffffffffffffffffffffffffffffffffffffffff1673ffffffffffffffffffffffffffffffffffffffff16815260200190815260200160002060008473ffffffffffffffffffffffffffffffffffffffff1673ffffffffffffffffffffffffffffffffffffffff16815260200190815260200160002060006101000a81548160ff0219169083151502179055508173ffffffffffffffffffffffffffffffffffffffff168373ffffffffffffffffffffffffffffffffffffffff167f17307eab39ab6107e8899845ad3d59bd9653f200f220920489ca2b5937696c318360405161284a91906130b6565b60405180910390a3505050565b612862848484611bb0565b61286e84848484612cf4565b6128ad576040517f08c379a00000000000000000000000000000000000000000000000000000000081526004016128a490614878565b60405180910390fd5b50505050565b60008073ffffffffffffffffffffffffffffffffffffffff166128d583611ea5565b73ffffffffffffffffffffffffffffffffffffffff1614159050919050565b60006128ff826109c5565b905061290d81600084612c57565b612916826109c5565b90506004600083815260200190815260200160002060006101000a81549073ffffffffffffffffffffffffffffffffffffffff02191690556001600360008373ffffffffffffffffffffffffffffffffffffffff1673ffffffffffffffffffffffffffffffffffffffff168152602001908152602001600020600082825403925050819055506002600083815260200190815260200160002060006101000a81549073ffffffffffffffffffffffffffffffffffffffff021916905581600073ffffffffffffffffffffffffffffffffffffffff168273ffffffffffffffffffffffffffffffffffffffff167fddf252ad1be2c89b69c2b068fc378daa952ba7f163c4a11628f55a4df523b3ef60405160405180910390a4612a3a81600084612c5c565b5050565b600073ffffffffffffffffffffffffffffffffffffffff168273ffffffffffffffffffffffffffffffffffffffff1603612aad576040517f08c379a0000000000000000000000000000000000000000000000000000000008152600401612aa4906148e4565b60405180910390fd5b612ab6816128b3565b15612af6576040517f08c379a0000000000000000000000000000000000000000000000000000000008152600401612aed90614950565b60405180910390fd5b612b0260008383612c57565b612b0b816128b3565b15612b4b576040517f08c379a0000000000000000000000000000000000000000000000000000000008152600401612b4290614950565b60405180910390fd5b6001600360008473ffffffffffffffffffffffffffffffffffffffff1673ffffffffffffffffffffffffffffffffffffffff16815260200190815260200160002060008282540192505081905550816002600083815260200190815260200160002060006101000a81548173ffffffffffffffffffffffffffffffffffffffff021916908373ffffffffffffffffffffffffffffffffffffffff160217905550808273ffffffffffffffffffffffffffffffffffffffff16600073ffffffffffffffffffffffffffffffffffffffff167fddf252ad1be2c89b69c2b068fc378daa952ba7f163c4a11628f55a4df523b3ef60405160405180910390a4612c5360008383612c5c565b5050565b505050565b505050565b60008060005b6003811015612ce75760118160038110612c8457612c83613fd7565b5b015482612c91919061408f565b91506005606483612ca29190614035565b612cac9190614769565b841015612cd457848160038110612cc657612cc5613fd7565b5b602002015192505050612cee565b8080612cdf906140c3565b915050612c67565b5060009150505b92915050565b6000612d158473ffffffffffffffffffffffffffffffffffffffff16612e7b565b15612e6e578373ffffffffffffffffffffffffffffffffffffffff1663150b7a02612d3e6118ef565b8786866040518563ffffffff1660e01b8152600401612d6094939291906149c5565b6020604051808303816000875af1925050508015612d9c57506040513d601f19601f82011682018060405250810190612d999190614a26565b60015b612e1e573d8060008114612dcc576040519150601f19603f3d011682016040523d82523d6000602084013e612dd1565b606091505b506000815103612e16576040517f08c379a0000000000000000000000000000000000000000000000000000000008152600401612e0d90614878565b60405180910390fd5b805181602001fd5b63150b7a0260e01b7bffffffffffffffffffffffffffffffffffffffffffffffffffffffff1916817bffffffffffffffffffffffffffffffffffffffffffffffffffffffff191614915050612e73565b600190505b949350505050565b600080823b905060008111915050919050565b6040518060600160405280600390602082028036833780820191505090505090565b6040518060e00160405280600790602082028036833780820191505090505090565b6040518060800160405280600490602082028036833780820191505090505090565b50600081556001016000815560010160009055565b5060008155600101600081556001016000815560010160009055565b508054612f3190613c86565b6000825580601f10612f435750612f62565b601f016020900490600052602060002090810190612f619190612fe5565b5b50565b8260038101928215612f94579160200282015b82811115612f93578251825591602001919060010190612f78565b5b509050612fa19190612fe5565b5090565b8260048101928215612fd4579160200282015b82811115612fd3578251825591602001919060010190612fb8565b5b509050612fe19190612fe5565b5090565b5b80821115612ffe576000816000905550600101612fe6565b5090565b6000604051905090565b600080fd5b600080fd5b60007fffffffff0000000000000000000000000000000000000000000000000000000082169050919050565b61304b81613016565b811461305657600080fd5b50565b60008135905061306881613042565b92915050565b6000602082840312156130845761308361300c565b5b600061309284828501613059565b91505092915050565b60008115159050919050565b6130b08161309b565b82525050565b60006020820190506130cb60008301846130a7565b92915050565b600081519050919050565b600082825260208201905092915050565b60005b8381101561310b5780820151818401526020810190506130f0565b60008484015250505050565b6000601f19601f8301169050919050565b6000613133826130d1565b61313d81856130dc565b935061314d8185602086016130ed565b61315681613117565b840191505092915050565b6000602082019050818103600083015261317b8184613128565b905092915050565b6000819050919050565b61319681613183565b81146131a157600080fd5b50565b6000813590506131b38161318d565b92915050565b6000602082840312156131cf576131ce61300c565b5b60006131dd848285016131a4565b91505092915050565b600073ffffffffffffffffffffffffffffffffffffffff82169050919050565b6000613211826131e6565b9050919050565b61322181613206565b82525050565b600060208201905061323c6000830184613218565b92915050565b61324b81613206565b811461325657600080fd5b50565b60008135905061326881613242565b92915050565b600080604083850312156132855761328461300c565b5b600061329385828601613259565b92505060206132a4858286016131a4565b9150509250929050565b600080fd5b600080fd5b7f4e487b7100000000000000000000000000000000000000000000000000000000600052604160045260246000fd5b6132f082613117565b810181811067ffffffffffffffff8211171561330f5761330e6132b8565b5b80604052505050565b6000613322613002565b905061332e82826132e7565b919050565b600067ffffffffffffffff82111561334e5761334d6132b8565b5b61335782613117565b9050602081019050919050565b82818337600083830152505050565b600061338661338184613333565b613318565b9050828152602081018484840111156133a2576133a16132b3565b5b6133ad848285613364565b509392505050565b600082601f8301126133ca576133c96132ae565b5b81356133da848260208601613373565b91505092915050565b600067ffffffffffffffff8211156133fe576133fd6132b8565b5b602082029050919050565b600080fd5b600061342161341c846133e3565b613318565b9050806020840283018581111561343b5761343a613409565b5b835b81811015613464578061345088826131a4565b84526020840193505060208101905061343d565b5050509392505050565b600082601f830112613483576134826132ae565b5b600361349084828561340e565b91505092915050565b600067ffffffffffffffff8211156134b4576134b36132b8565b5b602082029050919050565b60006134d26134cd84613499565b613318565b905080602084028301858111156134ec576134eb613409565b5b835b81811015613515578061350188826131a4565b8452602084019350506020810190506134ee565b5050509392505050565b600082601f830112613534576135336132ae565b5b60046135418482856134bf565b91505092915050565b600080600080600061014086880312156135675761356661300c565b5b600086013567ffffffffffffffff81111561358557613584613011565b5b613591888289016133b5565b95505060206135a2888289016131a4565b94505060406135b3888289016131a4565b93505060606135c48882890161346e565b92505060c06135d58882890161351f565b9150509295509295909350565b6135eb81613183565b82525050565b600060208201905061360660008301846135e2565b92915050565b6000806000606084860312156136255761362461300c565b5b600061363386828701613259565b935050602061364486828701613259565b9250506040613655868287016131a4565b9150509250925092565b600060039050919050565b600081905092915050565b6000819050919050565b61368881613183565b82525050565b600061369a838361367f565b60208301905092915050565b6000602082019050919050565b6136bc8161365f565b6136c6818461366a565b92506136d182613675565b8060005b838110156137025781516136e9878261368e565b96506136f4836136a6565b9250506001810190506136d5565b505050505050565b600060608201905061371f60008301846136b3565b92915050565b60006020828403121561373b5761373a61300c565b5b600061374984828501613259565b91505092915050565b600067ffffffffffffffff82111561376d5761376c6132b8565b5b602082029050919050565b600061378b61378684613752565b613318565b905080602084028301858111156137a5576137a4613409565b5b835b818110156137ce57806137ba88826131a4565b8452602084019350506020810190506137a7565b5050509392505050565b600082601f8301126137ed576137ec6132ae565b5b600f6137fa848285613778565b91505092915050565b60006101e0828403121561381a5761381961300c565b5b6000613828848285016137d8565b91505092915050565b600060ff82169050919050565b61384781613831565b811461385257600080fd5b50565b6000813590506138648161383e565b92915050565b60008060008060e085870312156138845761388361300c565b5b6000613892878288016131a4565b94505060206138a3878288016131a4565b93505060406138b48782880161351f565b92505060c06138c587828801613855565b91505092959194509250565b600060049050919050565b600081905092915050565b6000819050919050565b6000602082019050919050565b613907816138d1565b61391181846138dc565b925061391c826138e7565b8060005b8381101561394d578151613934878261368e565b965061393f836138f1565b925050600181019050613920565b505050505050565b600060808201905061396a60008301846138fe565b92915050565b6139798161309b565b811461398457600080fd5b50565b60008135905061399681613970565b92915050565b600080604083850312156139b3576139b261300c565b5b60006139c185828601613259565b92505060206139d285828601613987565b9150509250929050565b600067ffffffffffffffff8211156139f7576139f66132b8565b5b613a0082613117565b9050602081019050919050565b6000613a20613a1b846139dc565b613318565b905082815260208101848484011115613a3c57613a3b6132b3565b5b613a47848285613364565b509392505050565b600082601f830112613a6457613a636132ae565b5b8135613a74848260208601613a0d565b91505092915050565b60008060008060808587031215613a9757613a9661300c565b5b6000613aa587828801613259565b9450506020613ab687828801613259565b9350506040613ac7878288016131a4565b925050606085013567ffffffffffffffff811115613ae857613ae7613011565b5b613af487828801613a4f565b91505092959194509250565b6000819050919050565b6000613b25613b20613b1b846131e6565b613b00565b6131e6565b9050919050565b6000613b3782613b0a565b9050919050565b6000613b4982613b2c565b9050919050565b613b5981613b3e565b82525050565b6000602082019050613b746000830184613b50565b92915050565b60008060408385031215613b9157613b9061300c565b5b6000613b9f85828601613259565b9250506020613bb085828601613259565b9150509250929050565b60008060006101008486031215613bd457613bd361300c565b5b600084013567ffffffffffffffff811115613bf257613bf1613011565b5b613bfe868287016133b5565b9350506020613c0f8682870161346e565b9250506080613c208682870161351f565b9150509250925092565b600060808284031215613c4057613c3f61300c565b5b6000613c4e8482850161351f565b91505092915050565b7f4e487b7100000000000000000000000000000000000000000000000000000000600052602260045260246000fd5b60006002820490506001821680613c9e57607f821691505b602082108103613cb157613cb0613c57565b5b50919050565b7f4552433732313a20617070726f76616c20746f2063757272656e74206f776e6560008201527f7200000000000000000000000000000000000000000000000000000000000000602082015250565b6000613d136021836130dc565b9150613d1e82613cb7565b604082019050919050565b60006020820190508181036000830152613d4281613d06565b9050919050565b7f4552433732313a20617070726f76652063616c6c6572206973206e6f7420746f60008201527f6b656e206f776e6572206f7220617070726f76656420666f7220616c6c000000602082015250565b6000613da5603d836130dc565b9150613db082613d49565b604082019050919050565b60006020820190508181036000830152613dd481613d98565b9050919050565b7f796f7520617265206e6f74204e4654206f776e65720000000000000000000000600082015250565b6000613e116015836130dc565b9150613e1c82613ddb565b602082019050919050565b60006020820190508181036000830152613e4081613e04565b9050919050565b7f4552433732313a2063616c6c6572206973206e6f7420746f6b656e206f776e6560008201527f72206f7220617070726f76656400000000000000000000000000000000000000602082015250565b6000613ea3602d836130dc565b9150613eae82613e47565b604082019050919050565b60006020820190508181036000830152613ed281613e96565b9050919050565b7f4552433732313a20696e76616c696420746f6b656e2049440000000000000000600082015250565b6000613f0f6018836130dc565b9150613f1a82613ed9565b602082019050919050565b60006020820190508181036000830152613f3e81613f02565b9050919050565b7f4552433732313a2061646472657373207a65726f206973206e6f74206120766160008201527f6c6964206f776e65720000000000000000000000000000000000000000000000602082015250565b6000613fa16029836130dc565b9150613fac82613f45565b604082019050919050565b60006020820190508181036000830152613fd081613f94565b9050919050565b7f4e487b7100000000000000000000000000000000000000000000000000000000600052603260045260246000fd5b7f4e487b7100000000000000000000000000000000000000000000000000000000600052601160045260246000fd5b600061404082613183565b915061404b83613183565b9250817fffffffffffffffffffffffffffffffffffffffffffffffffffffffffffffffff048311821515161561408457614083614006565b5b828202905092915050565b600061409a82613183565b91506140a583613183565b92508282019050808211156140bd576140bc614006565b5b92915050565b60006140ce82613183565b91507fffffffffffffffffffffffffffffffffffffffffffffffffffffffffffffffff8203614100576140ff614006565b5b600182019050919050565b600061411682613183565b915061412183613183565b925082820390508181111561413957614138614006565b5b92915050565b60008160011c9050919050565b6000808291508390505b60018511156141965780860481111561417257614171614006565b5b60018516156141815780820291505b808102905061418f8561413f565b9450614156565b94509492505050565b6000826141af576001905061426b565b816141bd576000905061426b565b81600181146141d357600281146141dd5761420c565b600191505061426b565b60ff8411156141ef576141ee614006565b5b8360020a91508482111561420657614205614006565b5b5061426b565b5060208310610133831016604e8410600b84101617156142415782820a90508381111561423c5761423b614006565b5b61426b565b61424e848484600161414c565b9250905081840481111561426557614264614006565b5b81810290505b9392505050565b600061427d82613183565b915061428883613183565b92506142b57fffffffffffffffffffffffffffffffffffffffffffffffffffffffffffffffff848461419f565b905092915050565b7f4e487b7100000000000000000000000000000000000000000000000000000000600052601260045260246000fd5b60006142f782613183565b915061430283613183565b925082614312576143116142bd565b5b828206905092915050565b6000819050919050565b600061434261433d6143388461431d565b613b00565b613183565b9050919050565b61435281614327565b82525050565b600060608201905061436d6000830186613218565b61437a6020830185613218565b6143876040830184614349565b949350505050565b60008151905061439e81613970565b92915050565b6000602082840312156143ba576143b961300c565b5b60006143c88482850161438f565b91505092915050565b60008190508160005260206000209050919050565b60006020601f8301049050919050565b600082821b905092915050565b6000600883026144337fffffffffffffffffffffffffffffffffffffffffffffffffffffffffffffffff826143f6565b61443d86836143f6565b95508019841693508086168417925050509392505050565b600061447061446b61446684613183565b613b00565b613183565b9050919050565b6000819050919050565b61448a83614455565b61449e61449682614477565b848454614403565b825550505050565b600090565b6144b36144a6565b6144be818484614481565b505050565b5b818110156144e2576144d76000826144ab565b6001810190506144c4565b5050565b601f821115614527576144f8816143d1565b614501846143e6565b81016020851015614510578190505b61452461451c856143e6565b8301826144c3565b50505b505050565b600082821c905092915050565b600061454a6000198460080261452c565b1980831691505092915050565b60006145638383614539565b9150826002028217905092915050565b61457c826130d1565b67ffffffffffffffff811115614595576145946132b8565b5b61459f8254613c86565b6145aa8282856144e6565b600060209050601f8311600181146145dd57600084156145cb578287015190505b6145d58582614557565b86555061463d565b601f1984166145eb866143d1565b60005b82811015614613578489015182556001820191506020850194506020810190506145ee565b86831015614630578489015161462c601f891682614539565b8355505b6001600288020188555050505b505050505050565b7f4552433732313a207472616e736665722066726f6d20696e636f72726563742060008201527f6f776e6572000000000000000000000000000000000000000000000000000000602082015250565b60006146a16025836130dc565b91506146ac82614645565b604082019050919050565b600060208201905081810360008301526146d081614694565b9050919050565b7f4552433732313a207472616e7366657220746f20746865207a65726f2061646460008201527f7265737300000000000000000000000000000000000000000000000000000000602082015250565b60006147336024836130dc565b915061473e826146d7565b604082019050919050565b6000602082019050818103600083015261476281614726565b9050919050565b600061477482613183565b915061477f83613183565b92508261478f5761478e6142bd565b5b828204905092915050565b7f4552433732313a20617070726f766520746f2063616c6c657200000000000000600082015250565b60006147d06019836130dc565b91506147db8261479a565b602082019050919050565b600060208201905081810360008301526147ff816147c3565b9050919050565b7f4552433732313a207472616e7366657220746f206e6f6e20455243373231526560008201527f63656976657220696d706c656d656e7465720000000000000000000000000000602082015250565b60006148626032836130dc565b915061486d82614806565b604082019050919050565b6000602082019050818103600083015261489181614855565b9050919050565b7f4552433732313a206d696e7420746f20746865207a65726f2061646472657373600082015250565b60006148ce6020836130dc565b91506148d982614898565b602082019050919050565b600060208201905081810360008301526148fd816148c1565b9050919050565b7f4552433732313a20746f6b656e20616c7265616479206d696e74656400000000600082015250565b600061493a601c836130dc565b915061494582614904565b602082019050919050565b600060208201905081810360008301526149698161492d565b9050919050565b600081519050919050565b600082825260208201905092915050565b600061499782614970565b6149a1818561497b565b93506149b18185602086016130ed565b6149ba81613117565b840191505092915050565b60006080820190506149da6000830187613218565b6149e76020830186613218565b6149f460408301856135e2565b8181036060830152614a06818461498c565b905095945050505050565b600081519050614a2081613042565b92915050565b600060208284031215614a3c57614a3b61300c565b5b6000614a4a84828501614a11565b9150509291505056fea26469706673582212201f8bfbf3def9bec02f2386e7d0afec5014f2b3da04370e1abc9c47443939ef0e64736f6c63430008100033",
  "immutableReferences": {},
  "source": "// SPDX-License-Identifier: MIT\r\npragma solidity ^0.8.4;\r\n\r\nimport \"./token/ERC721/ERC721.sol\";\r\nimport \"./JavToken.sol\";\r\n/**\r\n * PJT  -  2) NFT Creator \r\n *         .\r\n */\r\ncontract JAV_NFT is ERC721 {\r\n    constructor() ERC721(\"javjongNFT\",\"JNFT\"){\r\n    }\r\n    // import\r\n    JavToken public JavTokenContract;\r\n\r\n    //  \r\n    struct javsDetail {\r\n        uint[3] gene;     // [,,]\r\n        uint[4] accessory; // [1,2,3,4]\r\n        uint256 create_at;\r\n    }\r\n\r\n    uint256 private _tokenIds;\r\n    mapping(uint256 => string) tokenURIs;\r\n    mapping(uint256 => javsDetail) javsData;\r\n    event createNFT (uint256 indexed _tokenId, address indexed _owner);\r\n\r\n    //   \r\n    //   NFT  ,  \r\n    function current() public view returns (uint256) {\r\n        return _tokenIds;\r\n    }\r\n    //   URL \r\n    function tokenURI(uint256 tokenId) public view override returns (string memory) {\r\n        return tokenURIs[tokenId];\r\n    }\r\n    //  \r\n    function getJavsGene(uint256 tokenId) public view returns (uint[3] memory) {\r\n        //    ,       ?\r\n        return javsData[tokenId].gene;\r\n    }\r\n\r\n    function getJavsAccessory(uint256 tokenId) public view returns (uint[4] memory) {\r\n        return javsData[tokenId].accessory;\r\n    }\r\n\r\n    function getJavsCreate_at(uint256 tokenId) public view returns (uint256) {\r\n        return javsData[tokenId].create_at;\r\n    }\r\n    \r\n    // ,  \r\n    \r\n    // NFT \r\n    function create(address to, string memory _tokenURI, uint[3] memory _gene, uint[4] memory _accessory) internal returns (uint256) {\r\n        uint256 tokenId = current() + 1;\r\n        tokenURIs[tokenId] = _tokenURI;\r\n        _tokenIds = tokenId;\r\n        _mint(to, tokenId);\r\n        //    \r\n        javsData[tokenId].gene =  _gene;\r\n        javsData[tokenId].accessory = _accessory;\r\n        javsData[tokenId].create_at = block.timestamp;\r\n        emit createNFT(tokenId, to);\r\n\r\n        return tokenId;\r\n    }\r\n\r\n    function pickup(string memory _tokenURI, uint[3] memory _gene, uint[4] memory _accessory) public returns (uint256){\r\n        // require(JavTokenContract.allowance(msg.sender, ) >= 100); //NFT  JA\r\n        JavTokenContract.transferFrom(msg.sender, address(this), 100);\r\n        uint256 value = create(msg.sender,_tokenURI,_gene,_accessory);\r\n\r\n        return value;\r\n    }\r\n\r\n    // \r\n    function fusionJavs(string memory _tokenURI, uint256 NFTid1, uint256 NFTid2 ,uint[3] memory _gene, uint[4] memory _accessory ) public returns (uint256){\r\n        //      public external \r\n        // burn token  ERC721 ownerOf  \r\n        require(msg.sender == ownerOf(NFTid1), \"you are not NFT owner\");\r\n        require(msg.sender == ownerOf(NFTid2), \"you are not NFT owner\");\r\n        _burn(NFTid1);\r\n        _burn(NFTid2);\r\n        uint256 value = create(msg.sender,_tokenURI,_gene,_accessory);\r\n        return value;\r\n    }\r\n    \r\n    function _burn(uint256 tokenId) internal override {\r\n        super._burn(tokenId);\r\n        delete javsData[tokenId];\r\n        delete tokenURIs[tokenId];\r\n    }\r\n\r\n    //  \r\n    uint[7] weight = [1, 1, 1, 1, 6, 6, 24];\r\n    uint[3] fusionWeight = [2, 2, 1];\r\n    uint[3] colorWeight = [1, 1, 1];\r\n    uint[3] gachaWeight = [1, 1, 1];\r\n    uint temp;\r\n\r\n    function gacha(uint[15] memory _nums) public view returns (uint[3] memory) {\r\n        uint[3] memory color = [_colorPicker(_nums[0]),_colorPicker(_nums[1]),_colorPicker(_nums[2])];\r\n        uint[3] memory self = [_gacha(_nums[3]),_gacha(_nums[4]),_gacha(_nums[5])];\r\n        uint[3] memory mother = [_gacha(_nums[6]),_gacha(_nums[7]),_gacha(_nums[8])];\r\n        uint[3] memory fatherMother = [_gacha(_nums[9]),_gacha(_nums[10]),_gacha(_nums[11])];\r\n        uint[3] memory motherMother = [_gacha(_nums[12]),_gacha(_nums[13]),_gacha(_nums[14])];\r\n        uint[3] memory myGene;\r\n\r\n\r\n        for (uint i = 0; i<3; i++){\r\n            myGene[i] = color[i] * 19342813113834066795298816\r\n            + self[i] * 4722366482869645213696\r\n            + self[i] * 1152921504606846976\r\n            + mother[i] * 281474976710656\r\n            + self[i] * 68719476736\r\n            + fatherMother[i] * 16777216\r\n            + mother[i] * 4096\r\n            + motherMother[i];\r\n        }\r\n        return myGene;\r\n    }\r\n\r\n    // function fusion(uint NFT_ID1, uint NFT_ID2, uint[12] memory _nums) public view returns (uint[3] memory) {\r\n    // function getFusionGene(uint NFT_ID1, uint NFT_ID2, uint[4] memory _nums1, uint[4] memory _nums2, uint[4] memory _nums3) public view returns(uint[3] memory){\r\n    //     uint[3] memory gene ;\r\n    //     gene[0] = fusion(NFT_ID1,NFT_ID2,_nums1);\r\n    //     gene[1] = fusion(NFT_ID1,NFT_ID2,_nums2);\r\n    //     gene[2] = fusion(NFT_ID1,NFT_ID2,_nums3);\r\n    //     return gene;\r\n    // }\r\n    \r\n    function fusion(uint NFT_ID1, uint NFT_ID2, uint[4] memory _nums, uint8 body) public view returns (uint) {\r\n        // body   0,1,2  \r\n        uint _geneX = getJavsGene(NFT_ID1)[body];\r\n        uint _geneY = getJavsGene(NFT_ID2)[body];\r\n        uint[7] memory arrayX;\r\n        uint[7] memory arrayY;\r\n        // uint mod = 4096; //(16**3)\r\n        for (uint i = 1; i < weight.length + 1; i++) {\r\n            // arrayX[i-1] = (_geneX % mod) / (mod / 4096);\r\n            // arrayY[i-1] = (_geneX % mod) / (mod / 4096);\r\n            arrayX[i-1] = _geneX % (16 ** ((i * 3) - (i - 1) * 3));\r\n            arrayY[i-1] = _geneY % (16 ** ((i * 3) - (i - 1) * 3));\r\n            // mod *= 4096;\r\n        }\r\n\r\n\r\n        uint winX = _winner(arrayX, _nums[0]%100);\r\n        uint winY = _winner(arrayY, _nums[1]%100); \r\n        uint winZ = _fusion(winX,winY,_nums[2]%100);\r\n        uint color = _colorPicker(_nums[3]%100);\r\n        \r\n        uint child ;\r\n        child = color * 19342813113834066795298816\r\n            + winZ * 4722366482869645213696\r\n            + arrayX[6] * 1152921504606846976\r\n            + arrayY[6] * 281474976710656\r\n            + arrayX[5] * 68719476736\r\n            + arrayX[4] * 16777216\r\n            + arrayY[5] * 4096\r\n            + arrayY[4];\r\n        \r\n        return child;\r\n    }\r\n\r\n    function getAcce(uint[4] memory _nums) public pure returns (uint[4] memory){\r\n        uint[4] memory acce;\r\n        acce[0] = 1*256 + _nums[0] % 16 +1;\r\n        acce[1] = 2*256 + _nums[1] % 13 +1;\r\n        acce[2] = 3*256 + _nums[2] % 14 +1;\r\n        acce[3] = 4*256 + _nums[3] % 13 +1;\r\n        return acce;\r\n    }\r\n\r\n    function _winner(uint[7] memory _array, uint _random) private view returns (uint) {\r\n        uint weightSum;\r\n\r\n        for (uint i = 0; i < 7; i++) {\r\n            weightSum += weight[i];\r\n\r\n            if (_random < weightSum * 5 / 2) {\r\n                return _array[i];\r\n            }\r\n        }\r\n        return 0;\r\n    }\r\n\r\n    function _fusion(uint x, uint y, uint _random) private view returns (uint) {\r\n        if (x == 0x001) {\r\n            if (y == 0x001) {\r\n                uint[3] memory fusionArray = [x, y, y];\r\n                uint res = _fusionWinner(fusionArray, _random);\r\n                return res;\r\n            } else if (y == 0x002) {\r\n                uint[3] memory fusionArray = [x, y, 0x004];\r\n                uint res = _fusionWinner(fusionArray, _random);\r\n                return res;\r\n            } else if (y == 0x003) {\r\n                uint[3] memory fusionArray = [x, y, 0x005];\r\n                uint res = _fusionWinner(fusionArray, _random);\r\n                return res;\r\n            } else {\r\n                uint[3] memory fusionArray = [y, y, x];\r\n                uint res = _fusionWinner(fusionArray, _random);\r\n                return res;\r\n            }\r\n        } else if (x == 0x002) {\r\n            if (y == 0x001) {\r\n                uint[3] memory fusionArray = [x, y, 0x004];\r\n                uint res = _fusionWinner(fusionArray, _random);\r\n                return res;\r\n            } else if (y == 0x002) {\r\n                uint[3] memory fusionArray = [x, y, y];\r\n                uint res = _fusionWinner(fusionArray, _random);\r\n                return res;\r\n            } else if (y == 0x003) {\r\n                uint[3] memory fusionArray = [x, y, 0x006];\r\n                uint res = _fusionWinner(fusionArray, _random);\r\n                return res;\r\n            } else {\r\n                uint[3] memory fusionArray = [y, y, x];\r\n                uint res = _fusionWinner(fusionArray, _random);\r\n                return res;\r\n            }\r\n        } else if (x == 0x003) {\r\n            if (y == 0x001) {\r\n                uint[3] memory fusionArray = [x, y, 0x005];\r\n                uint res = _fusionWinner(fusionArray, _random);\r\n                return res;\r\n            } else if (y == 0x002) {\r\n                uint[3] memory fusionArray = [x, y, 0x006];\r\n                uint res = _fusionWinner(fusionArray, _random);\r\n                return res;\r\n            } else if (y == 0x003) {\r\n                uint[3] memory fusionArray = [x, y, y];\r\n                uint res = _fusionWinner(fusionArray, _random);\r\n                return res;\r\n            } else {\r\n                uint[3] memory fusionArray = [y, y, x];\r\n                uint res = _fusionWinner(fusionArray, _random);\r\n                return res;\r\n            }\r\n        } else if (x == 0x004) {\r\n            if (y == 0x001 || y == 0x002 || y == 0x003) {\r\n                uint[3] memory fusionArray = [x, x, y];\r\n                uint res = _fusionWinner(fusionArray, _random);\r\n                return res;\r\n            } else if (y == 0x004) {\r\n                uint[3] memory fusionArray = [x, y, y];\r\n                uint res = _fusionWinner(fusionArray, _random);\r\n                return res;\r\n            } else if (y == 0x005) {\r\n                uint[3] memory fusionArray = [x, y, 0x007];\r\n                uint res = _fusionWinner(fusionArray, _random);\r\n                return res;\r\n            } else if (y == 0x006) {\r\n                uint[3] memory fusionArray = [x, y, 0x008];\r\n                uint res = _fusionWinner(fusionArray, _random);\r\n                return res;\r\n            } else {\r\n                uint[3] memory fusionArray = [y, y, x];\r\n                uint res = _fusionWinner(fusionArray, _random);\r\n                return res;\r\n            }\r\n        } else if (x == 0x005) {\r\n            if (y == 0x001 || y == 0x002 || y == 0x003) {\r\n                uint[3] memory fusionArray = [x, x, y];\r\n                uint res = _fusionWinner(fusionArray, _random);\r\n                return res;\r\n            } else if (y == 0x004) {\r\n                uint[3] memory fusionArray = [x, y, 0x007];\r\n                uint res = _fusionWinner(fusionArray, _random);\r\n                return res;\r\n            } else if (y == 0x005) {\r\n                uint[3] memory fusionArray = [x, y, y];\r\n                uint res = _fusionWinner(fusionArray, _random);\r\n                return res;\r\n            } else if (y == 0x006) {\r\n                uint[3] memory fusionArray = [x, y, 0x009];\r\n                uint res = _fusionWinner(fusionArray, _random);\r\n                return res;\r\n            } else {\r\n                uint[3] memory fusionArray = [y, y, x];\r\n                uint res = _fusionWinner(fusionArray, _random);\r\n                return res;\r\n            }\r\n        } else if (x == 0x006) {\r\n            if (y == 0x001 || y == 0x002 || y == 0x003) {\r\n                uint[3] memory fusionArray = [x, x, y];\r\n                uint res = _fusionWinner(fusionArray, _random);\r\n                return res;\r\n            } else if (y == 0x004) {\r\n                uint[3] memory fusionArray = [x, y, 0x008];\r\n                uint res = _fusionWinner(fusionArray, _random);\r\n                return res;\r\n            } else if (y == 0x005) {\r\n                uint[3] memory fusionArray = [x, y, 0x009];\r\n                uint res = _fusionWinner(fusionArray, _random);\r\n                return res;\r\n            } else if (y == 0x006) {\r\n                uint[3] memory fusionArray = [x, y, y];\r\n                uint res = _fusionWinner(fusionArray, _random);\r\n                return res;\r\n            } else {\r\n                uint[3] memory fusionArray = [y, y, x];\r\n                uint res = _fusionWinner(fusionArray, _random);\r\n                return res;\r\n            }\r\n        } else {\r\n            uint[3] memory fusionArray = [y, y, x];\r\n            uint res = _fusionWinner(fusionArray, _random);\r\n            return res;\r\n        }\r\n    }\r\n\r\n    function _fusionWinner(uint[3] memory _array, uint _random) private view returns (uint) {\r\n        uint weightSum;\r\n\r\n        for (uint i = 0; i < 3; i++) {\r\n            weightSum += fusionWeight[i];\r\n\r\n            if (_random < weightSum * 100 / 5) {\r\n                return _array[i];\r\n            }\r\n        }\r\n        return 0;\r\n    }\r\n\r\n    function _colorPicker(uint _random) private pure returns (uint) {\r\n        return (_random % 3) +1;\r\n    }\r\n\r\n    function _gacha(uint _random) private pure returns (uint) {\r\n        return _random %3 + 1;\r\n    }\r\n}\r\n",
  "sourcePath": "C:\\Users\\\\Desktop\\SSAFY_\\sub-pjt2\\S07P22C108\\smart-contracts\\contracts\\JAV_NFT.sol",
  "compiler": {
    "name": "solc",
    "version": "0.8.16+commit.07a7930e.Emscripten.clang"
  },
  "schemaVersion": "3.4.9",
  "updatedAt": "2022-09-26T13:37:25.519Z",
  "networkType": "ethereum",
  "devdoc": {
    "kind": "dev",
    "methods": {
      "approve(address,uint256)": {
        "details": "See {IERC721-approve}."
      },
      "balanceOf(address)": {
        "details": "See {IERC721-balanceOf}."
      },
      "getApproved(uint256)": {
        "details": "See {IERC721-getApproved}."
      },
      "isApprovedForAll(address,address)": {
        "details": "See {IERC721-isApprovedForAll}."
      },
      "name()": {
        "details": "See {IERC721Metadata-name}."
      },
      "ownerOf(uint256)": {
        "details": "See {IERC721-ownerOf}."
      },
      "safeTransferFrom(address,address,uint256)": {
        "details": "See {IERC721-safeTransferFrom}."
      },
      "safeTransferFrom(address,address,uint256,bytes)": {
        "details": "See {IERC721-safeTransferFrom}."
      },
      "setApprovalForAll(address,bool)": {
        "details": "See {IERC721-setApprovalForAll}."
      },
      "supportsInterface(bytes4)": {
        "details": "See {IERC165-supportsInterface}."
      },
      "symbol()": {
        "details": "See {IERC721Metadata-symbol}."
      },
      "tokenURI(uint256)": {
        "details": "See {IERC721Metadata-tokenURI}."
      },
      "transferFrom(address,address,uint256)": {
        "details": "See {IERC721-transferFrom}."
      }
    },
    "version": 1
  },
  "userdoc": {
    "kind": "user",
    "methods": {},
    "notice": "PJT  -  2) NFT Creator          .",
    "version": 1
  }
}