{
  "contractName": "SaleFactory",
  "abi": [
    {
      "inputs": [
        {
          "internalType": "address",
          "name": "_NFTcreatorAddress",
          "type": "address"
        }
      ],
      "stateMutability": "nonpayable",
      "type": "constructor"
    },
    {
      "anonymous": false,
      "inputs": [
        {
          "indexed": true,
          "internalType": "address",
          "name": "_saleContract",
          "type": "address"
        },
        {
          "indexed": true,
          "internalType": "address",
          "name": "_owner",
          "type": "address"
        },
        {
          "indexed": false,
          "internalType": "uint256",
          "name": "_workId",
          "type": "uint256"
        }
      ],
      "name": "NewSale",
      "type": "event"
    },
    {
      "anonymous": false,
      "inputs": [
        {
          "indexed": true,
          "internalType": "address",
          "name": "previousOwner",
          "type": "address"
        },
        {
          "indexed": true,
          "internalType": "address",
          "name": "newOwner",
          "type": "address"
        }
      ],
      "name": "OwnershipTransferred",
      "type": "event"
    },
    {
      "inputs": [],
      "name": "NFTcreatorContract",
      "outputs": [
        {
          "internalType": "contract JAV_NFT",
          "name": "",
          "type": "address"
        }
      ],
      "stateMutability": "view",
      "type": "function",
      "constant": true
    },
    {
      "inputs": [],
      "name": "admin",
      "outputs": [
        {
          "internalType": "address",
          "name": "",
          "type": "address"
        }
      ],
      "stateMutability": "view",
      "type": "function",
      "constant": true
    },
    {
      "inputs": [],
      "name": "owner",
      "outputs": [
        {
          "internalType": "address",
          "name": "",
          "type": "address"
        }
      ],
      "stateMutability": "view",
      "type": "function",
      "constant": true
    },
    {
      "inputs": [],
      "name": "renounceOwnership",
      "outputs": [],
      "stateMutability": "nonpayable",
      "type": "function"
    },
    {
      "inputs": [
        {
          "internalType": "uint256",
          "name": "",
          "type": "uint256"
        }
      ],
      "name": "sales",
      "outputs": [
        {
          "internalType": "address",
          "name": "",
          "type": "address"
        }
      ],
      "stateMutability": "view",
      "type": "function",
      "constant": true
    },
    {
      "inputs": [
        {
          "internalType": "address",
          "name": "newOwner",
          "type": "address"
        }
      ],
      "name": "transferOwnership",
      "outputs": [],
      "stateMutability": "nonpayable",
      "type": "function"
    },
    {
      "inputs": [
        {
          "internalType": "uint256",
          "name": "itemId",
          "type": "uint256"
        },
        {
          "internalType": "uint256",
          "name": "purchasePrice",
          "type": "uint256"
        },
        {
          "internalType": "address",
          "name": "currencyAddress",
          "type": "address"
        },
        {
          "internalType": "address",
          "name": "nftAddress",
          "type": "address"
        }
      ],
      "name": "createSale",
      "outputs": [
        {
          "internalType": "address",
          "name": "",
          "type": "address"
        }
      ],
      "stateMutability": "nonpayable",
      "type": "function"
    },
    {
      "inputs": [],
      "name": "allSales",
      "outputs": [
        {
          "internalType": "address[]",
          "name": "",
          "type": "address[]"
        }
      ],
      "stateMutability": "view",
      "type": "function",
      "constant": true
    },
    {
      "inputs": [
        {
          "internalType": "uint256",
          "name": "tokenId",
          "type": "uint256"
        }
      ],
      "name": "getSaleContractAddress",
      "outputs": [
        {
          "internalType": "address",
          "name": "",
          "type": "address"
        }
      ],
      "stateMutability": "view",
      "type": "function",
      "constant": true
    }
  ],
  "bytecode": "0x60806040523480156200001157600080fd5b506040516200264638038062002646833981810160405281019062000037919062000216565b620000576200004b620000e060201b60201c565b620000e860201b60201c565b33600160006101000a81548173ffffffffffffffffffffffffffffffffffffffff021916908373ffffffffffffffffffffffffffffffffffffffff16021790555080600460006101000a81548173ffffffffffffffffffffffffffffffffffffffff021916908373ffffffffffffffffffffffffffffffffffffffff1602179055505062000248565b600033905090565b60008060009054906101000a900473ffffffffffffffffffffffffffffffffffffffff169050816000806101000a81548173ffffffffffffffffffffffffffffffffffffffff021916908373ffffffffffffffffffffffffffffffffffffffff1602179055508173ffffffffffffffffffffffffffffffffffffffff168173ffffffffffffffffffffffffffffffffffffffff167f8be0079c531659141344cd1fd0a4f28419497f9722a3daafe3b4186f6b6457e060405160405180910390a35050565b600080fd5b600073ffffffffffffffffffffffffffffffffffffffff82169050919050565b6000620001de82620001b1565b9050919050565b620001f081620001d1565b8114620001fc57600080fd5b50565b6000815190506200021081620001e5565b92915050565b6000602082840312156200022f576200022e620001ac565b5b60006200023f84828501620001ff565b91505092915050565b6123ee80620002586000396000f3fe60806040523480156200001157600080fd5b5060043610620000a05760003560e01c80638da5cb5b116200006f5780638da5cb5b146200012b578063908c1807146200014d578063b5f522f71462000183578063f2fde38b14620001b9578063f851a44014620001d957620000a0565b806308aab23014620000a55780631df3574f14620000c75780636eafecba14620000fd578063715018a6146200011f575b600080fd5b620000af620001fb565b604051620000be9190620009da565b60405180910390f35b620000e56004803603810190620000df919062000a7c565b62000221565b604051620000f4919062000aff565b60405180910390f35b62000107620004e1565b60405162000116919062000bea565b60405180910390f35b6200012962000571565b005b6200013562000602565b60405162000144919062000aff565b60405180910390f35b6200016b600480360381019062000165919062000c0e565b6200062b565b6040516200017a919062000aff565b60405180910390f35b620001a160048036038101906200019b919062000c0e565b6200070c565b604051620001b0919062000aff565b60405180910390f35b620001d76004803603810190620001d1919062000c40565b6200074c565b005b620001e36200084f565b604051620001f2919062000aff565b60405180910390f35b600460009054906101000a900473ffffffffffffffffffffffffffffffffffffffff1681565b6000803390506000600160009054906101000a900473ffffffffffffffffffffffffffffffffffffffff1682888888886040516200025f9062000941565b620002709695949392919062000c83565b604051809103906000f0801580156200028d573d6000803e3d6000fd5b509050600460009054906101000a900473ffffffffffffffffffffffffffffffffffffffff1673ffffffffffffffffffffffffffffffffffffffff1663095ea7b382896040518363ffffffff1660e01b8152600401620002ef92919062000cf0565b600060405180830381600087803b1580156200030a57600080fd5b505af11580156200031f573d6000803e3d6000fd5b50505050600460009054906101000a900473ffffffffffffffffffffffffffffffffffffffff1673ffffffffffffffffffffffffffffffffffffffff166323b872dd83838a6040518463ffffffff1660e01b8152600401620003849392919062000d1d565b600060405180830381600087803b1580156200039f57600080fd5b505af1158015620003b4573d6000803e3d6000fd5b505050506002819080600181540180825580915050600190039060005260206000200160009091909190916101000a81548173ffffffffffffffffffffffffffffffffffffffff021916908373ffffffffffffffffffffffffffffffffffffffff160217905550806003600089815260200190815260200160002060006101000a81548173ffffffffffffffffffffffffffffffffffffffff021916908373ffffffffffffffffffffffffffffffffffffffff1602179055503373ffffffffffffffffffffffffffffffffffffffff168173ffffffffffffffffffffffffffffffffffffffff167f874bdb649427dfeceaa7f10beee59a823d3e45a6814f50bc18ba2adefd058e4889604051620004cc919062000d5a565b60405180910390a38092505050949350505050565b606060028054806020026020016040519081016040528092919081815260200182805480156200056757602002820191906000526020600020905b8160009054906101000a900473ffffffffffffffffffffffffffffffffffffffff1673ffffffffffffffffffffffffffffffffffffffff16815260200190600101908083116200051c575b5050505050905090565b6200057b62000875565b73ffffffffffffffffffffffffffffffffffffffff166200059b62000602565b73ffffffffffffffffffffffffffffffffffffffff1614620005f4576040517f08c379a0000000000000000000000000000000000000000000000000000000008152600401620005eb9062000dd8565b60405180910390fd5b6200060060006200087d565b565b60008060009054906101000a900473ffffffffffffffffffffffffffffffffffffffff16905090565b60008073ffffffffffffffffffffffffffffffffffffffff166003600084815260200190815260200160002060009054906101000a900473ffffffffffffffffffffffffffffffffffffffff1673ffffffffffffffffffffffffffffffffffffffff1603620006d1576040517f08c379a0000000000000000000000000000000000000000000000000000000008152600401620006c89062000e4a565b60405180910390fd5b6003600083815260200190815260200160002060009054906101000a900473ffffffffffffffffffffffffffffffffffffffff169050919050565b600281815481106200071d57600080fd5b906000526020600020016000915054906101000a900473ffffffffffffffffffffffffffffffffffffffff1681565b6200075662000875565b73ffffffffffffffffffffffffffffffffffffffff166200077662000602565b73ffffffffffffffffffffffffffffffffffffffff1614620007cf576040517f08c379a0000000000000000000000000000000000000000000000000000000008152600401620007c69062000dd8565b60405180910390fd5b600073ffffffffffffffffffffffffffffffffffffffff168173ffffffffffffffffffffffffffffffffffffffff160362000841576040517f08c379a0000000000000000000000000000000000000000000000000000000008152600401620008389062000ee2565b60405180910390fd5b6200084c816200087d565b50565b600160009054906101000a900473ffffffffffffffffffffffffffffffffffffffff1681565b600033905090565b60008060009054906101000a900473ffffffffffffffffffffffffffffffffffffffff169050816000806101000a81548173ffffffffffffffffffffffffffffffffffffffff021916908373ffffffffffffffffffffffffffffffffffffffff1602179055508173ffffffffffffffffffffffffffffffffffffffff168173ffffffffffffffffffffffffffffffffffffffff167f8be0079c531659141344cd1fd0a4f28419497f9722a3daafe3b4186f6b6457e060405160405180910390a35050565b6114b48062000f0583390190565b600073ffffffffffffffffffffffffffffffffffffffff82169050919050565b6000819050919050565b60006200099a620009946200098e846200094f565b6200096f565b6200094f565b9050919050565b6000620009ae8262000979565b9050919050565b6000620009c282620009a1565b9050919050565b620009d481620009b5565b82525050565b6000602082019050620009f16000830184620009c9565b92915050565b600080fd5b6000819050919050565b62000a1181620009fc565b811462000a1d57600080fd5b50565b60008135905062000a318162000a06565b92915050565b600062000a44826200094f565b9050919050565b62000a568162000a37565b811462000a6257600080fd5b50565b60008135905062000a768162000a4b565b92915050565b6000806000806080858703121562000a995762000a98620009f7565b5b600062000aa98782880162000a20565b945050602062000abc8782880162000a20565b935050604062000acf8782880162000a65565b925050606062000ae28782880162000a65565b91505092959194509250565b62000af98162000a37565b82525050565b600060208201905062000b16600083018462000aee565b92915050565b600081519050919050565b600082825260208201905092915050565b6000819050602082019050919050565b62000b538162000a37565b82525050565b600062000b67838362000b48565b60208301905092915050565b6000602082019050919050565b600062000b8d8262000b1c565b62000b99818562000b27565b935062000ba68362000b38565b8060005b8381101562000bdd57815162000bc1888262000b59565b975062000bce8362000b73565b92505060018101905062000baa565b5085935050505092915050565b6000602082019050818103600083015262000c06818462000b80565b905092915050565b60006020828403121562000c275762000c26620009f7565b5b600062000c378482850162000a20565b91505092915050565b60006020828403121562000c595762000c58620009f7565b5b600062000c698482850162000a65565b91505092915050565b62000c7d81620009fc565b82525050565b600060c08201905062000c9a600083018962000aee565b62000ca9602083018862000aee565b62000cb8604083018762000c72565b62000cc7606083018662000c72565b62000cd6608083018562000aee565b62000ce560a083018462000aee565b979650505050505050565b600060408201905062000d07600083018562000aee565b62000d16602083018462000c72565b9392505050565b600060608201905062000d34600083018662000aee565b62000d43602083018562000aee565b62000d52604083018462000c72565b949350505050565b600060208201905062000d71600083018462000c72565b92915050565b600082825260208201905092915050565b7f4f776e61626c653a2063616c6c6572206973206e6f7420746865206f776e6572600082015250565b600062000dc060208362000d77565b915062000dcd8262000d88565b602082019050919050565b6000602082019050818103600083015262000df38162000db1565b9050919050565b7f7468697320746f6b656e206973206e6f74206f6e2073616c652e000000000000600082015250565b600062000e32601a8362000d77565b915062000e3f8262000dfa565b602082019050919050565b6000602082019050818103600083015262000e658162000e23565b9050919050565b7f4f776e61626c653a206e6577206f776e657220697320746865207a65726f206160008201527f6464726573730000000000000000000000000000000000000000000000000000602082015250565b600062000eca60268362000d77565b915062000ed78262000e6c565b604082019050919050565b6000602082019050818103600083015262000efd8162000ebb565b905091905056fe60806040523480156200001157600080fd5b50604051620014b4380380620014b48339818101604052810190620000379190620002a4565b600083116200004557600080fd5b8360048190555082600381905550846000806101000a81548173ffffffffffffffffffffffffffffffffffffffff021916908373ffffffffffffffffffffffffffffffffffffffff16021790555085600260006101000a81548173ffffffffffffffffffffffffffffffffffffffff021916908373ffffffffffffffffffffffffffffffffffffffff16021790555081600560006101000a81548173ffffffffffffffffffffffffffffffffffffffff021916908373ffffffffffffffffffffffffffffffffffffffff16021790555080600660006101000a81548173ffffffffffffffffffffffffffffffffffffffff021916908373ffffffffffffffffffffffffffffffffffffffff1602179055506000600660146101000a81548160ff02191690831515021790555081600760006101000a81548173ffffffffffffffffffffffffffffffffffffffff021916908373ffffffffffffffffffffffffffffffffffffffff16021790555080600860006101000a81548173ffffffffffffffffffffffffffffffffffffffff021916908373ffffffffffffffffffffffffffffffffffffffff16021790555050505050505062000340565b600080fd5b600073ffffffffffffffffffffffffffffffffffffffff82169050919050565b6000620002318262000204565b9050919050565b620002438162000224565b81146200024f57600080fd5b50565b600081519050620002638162000238565b92915050565b6000819050919050565b6200027e8162000269565b81146200028a57600080fd5b50565b6000815190506200029e8162000273565b92915050565b60008060008060008060c08789031215620002c457620002c3620001ff565b5b6000620002d489828a0162000252565b9650506020620002e789828a0162000252565b9550506040620002fa89828a016200028d565b94505060606200030d89828a016200028d565b93505060806200032089828a0162000252565b92505060a06200033389828a0162000252565b9150509295509295509295565b61116480620003506000396000f3fe608060405234801561001057600080fd5b50600436106100b45760003560e01c80637150d8ae116100715780637150d8ae1461016d578063903e329c1461018b578063d1ae16da14610195578063db83694c146101b3578063defd6c5f146101d4578063efef39a1146101f2576100b4565b806308551a53146100b957806308aab230146100d757806312fa6feb146100f557806317d70f7c146101135780631c1cb323146101315780635bf8633a1461014f575b600080fd5b6100c161020e565b6040516100ce9190610b21565b60405180910390f35b6100df610232565b6040516100ec9190610b9b565b60405180910390f35b6100fd610258565b60405161010a9190610bd1565b60405180910390f35b61011b61026b565b6040516101289190610c05565b60405180910390f35b610139610271565b6040516101469190610b21565b60405180910390f35b610157610297565b6040516101649190610b21565b60405180910390f35b6101756102bd565b6040516101829190610b21565b60405180910390f35b6101936102e3565b005b61019d610486565b6040516101aa9190610c41565b60405180910390f35b6101bb6104ac565b6040516101cb9493929190610c5c565b60405180910390f35b6101dc61050c565b6040516101e99190610c05565b60405180910390f35b61020c60048036038101906102079190610cd2565b610512565b005b60008054906101000a900473ffffffffffffffffffffffffffffffffffffffff1681565b600860009054906101000a900473ffffffffffffffffffffffffffffffffffffffff1681565b600660149054906101000a900460ff1681565b60045481565b600560009054906101000a900473ffffffffffffffffffffffffffffffffffffffff1681565b600660009054906101000a900473ffffffffffffffffffffffffffffffffffffffff1681565b600160009054906101000a900473ffffffffffffffffffffffffffffffffffffffff1681565b60008054906101000a900473ffffffffffffffffffffffffffffffffffffffff1673ffffffffffffffffffffffffffffffffffffffff163373ffffffffffffffffffffffffffffffffffffffff16148061038a5750600260009054906101000a900473ffffffffffffffffffffffffffffffffffffffff1673ffffffffffffffffffffffffffffffffffffffff163373ffffffffffffffffffffffffffffffffffffffff16145b6103c9576040517f08c379a00000000000000000000000000000000000000000000000000000000081526004016103c090610d5c565b60405180910390fd5b600860009054906101000a900473ffffffffffffffffffffffffffffffffffffffff1673ffffffffffffffffffffffffffffffffffffffff166323b872dd3060008054906101000a900473ffffffffffffffffffffffffffffffffffffffff166004546040518463ffffffff1660e01b815260040161044a93929190610d7c565b600060405180830381600087803b15801561046457600080fd5b505af1158015610478573d6000803e3d6000fd5b50505050610484610ac3565b565b600760009054906101000a900473ffffffffffffffffffffffffffffffffffffffff1681565b600080600080600354600454600560009054906101000a900473ffffffffffffffffffffffffffffffffffffffff16600660009054906101000a900473ffffffffffffffffffffffffffffffffffffffff16935093509350935090919293565b60035481565b60008054906101000a900473ffffffffffffffffffffffffffffffffffffffff1673ffffffffffffffffffffffffffffffffffffffff163373ffffffffffffffffffffffffffffffffffffffff16036105a0576040517f08c379a000000000000000000000000000000000000000000000000000000000815260040161059790610dff565b60405180910390fd5b80600760009054906101000a900473ffffffffffffffffffffffffffffffffffffffff1673ffffffffffffffffffffffffffffffffffffffff166370a08231336040518263ffffffff1660e01b81526004016105fc9190610b21565b602060405180830381865afa158015610619573d6000803e3d6000fd5b505050506040513d601f19601f8201168201806040525081019061063d9190610e34565b101561067e576040517f08c379a000000000000000000000000000000000000000000000000000000000815260040161067590610ed3565b60405180910390fd5b6000600760009054906101000a900473ffffffffffffffffffffffffffffffffffffffff1673ffffffffffffffffffffffffffffffffffffffff1663dd62ed3e33306040518363ffffffff1660e01b81526004016106dd929190610ef3565b602060405180830381865afa1580156106fa573d6000803e3d6000fd5b505050506040513d601f19601f8201168201806040525081019061071e9190610e34565b0361075e576040517f08c379a000000000000000000000000000000000000000000000000000000000815260040161075590610f8e565b60405180910390fd5b80600760009054906101000a900473ffffffffffffffffffffffffffffffffffffffff1673ffffffffffffffffffffffffffffffffffffffff1663dd62ed3e33306040518363ffffffff1660e01b81526004016107bc929190610ef3565b602060405180830381865afa1580156107d9573d6000803e3d6000fd5b505050506040513d601f19601f820116820180604052508101906107fd9190610e34565b101561083e576040517f08c379a000000000000000000000000000000000000000000000000000000000815260040161083590611020565b60405180910390fd5b6003548114610882576040517f08c379a00000000000000000000000000000000000000000000000000000000081526004016108799061108c565b60405180910390fd5b33600160006101000a81548173ffffffffffffffffffffffffffffffffffffffff021916908373ffffffffffffffffffffffffffffffffffffffff160217905550600760009054906101000a900473ffffffffffffffffffffffffffffffffffffffff1673ffffffffffffffffffffffffffffffffffffffff166323b872dd600160009054906101000a900473ffffffffffffffffffffffffffffffffffffffff1660008054906101000a900473ffffffffffffffffffffffffffffffffffffffff16846040518463ffffffff1660e01b815260040161096493929190610d7c565b6020604051808303816000875af1158015610983573d6000803e3d6000fd5b505050506040513d601f19601f820116820180604052508101906109a791906110d8565b50600860009054906101000a900473ffffffffffffffffffffffffffffffffffffffff1673ffffffffffffffffffffffffffffffffffffffff166323b872dd30600160009054906101000a900473ffffffffffffffffffffffffffffffffffffffff166004546040518463ffffffff1660e01b8152600401610a2b93929190610d7c565b600060405180830381600087803b158015610a4557600080fd5b505af1158015610a59573d6000803e3d6000fd5b505050507f349f939aaa1895cee67485b264474f0d2a1aac01083917b8ea9f96e4036cbb27600160009054906101000a900473ffffffffffffffffffffffffffffffffffffffff1682604051610ab0929190611105565b60405180910390a1610ac0610ac3565b50565b6001600660146101000a81548160ff021916908315150217905550565b600073ffffffffffffffffffffffffffffffffffffffff82169050919050565b6000610b0b82610ae0565b9050919050565b610b1b81610b00565b82525050565b6000602082019050610b366000830184610b12565b92915050565b6000819050919050565b6000610b61610b5c610b5784610ae0565b610b3c565b610ae0565b9050919050565b6000610b7382610b46565b9050919050565b6000610b8582610b68565b9050919050565b610b9581610b7a565b82525050565b6000602082019050610bb06000830184610b8c565b92915050565b60008115159050919050565b610bcb81610bb6565b82525050565b6000602082019050610be66000830184610bc2565b92915050565b6000819050919050565b610bff81610bec565b82525050565b6000602082019050610c1a6000830184610bf6565b92915050565b6000610c2b82610b68565b9050919050565b610c3b81610c20565b82525050565b6000602082019050610c566000830184610c32565b92915050565b6000608082019050610c716000830187610bf6565b610c7e6020830186610bf6565b610c8b6040830185610b12565b610c986060830184610b12565b95945050505050565b600080fd5b610caf81610bec565b8114610cba57600080fd5b50565b600081359050610ccc81610ca6565b92915050565b600060208284031215610ce857610ce7610ca1565b5b6000610cf684828501610cbd565b91505092915050565b600082825260208201905092915050565b7f63616c6c6572206973206e6f7420617070726f76656400000000000000000000600082015250565b6000610d46601683610cff565b9150610d5182610d10565b602082019050919050565b60006020820190508181036000830152610d7581610d39565b9050919050565b6000606082019050610d916000830186610b12565b610d9e6020830185610b12565b610dab6040830184610bf6565b949350505050565b7f73656c6c65722063616e27742063616c6c20746869732066756e6374696f6e00600082015250565b6000610de9601f83610cff565b9150610df482610db3565b602082019050919050565b60006020820190508181036000830152610e1881610ddc565b9050919050565b600081519050610e2e81610ca6565b92915050565b600060208284031215610e4a57610e49610ca1565b5b6000610e5884828501610e1f565b91505092915050565b7f627579657220646f206e6f74206861766520656e6f756768204552433230207460008201527f6f6b656e00000000000000000000000000000000000000000000000000000000602082015250565b6000610ebd602483610cff565b9150610ec882610e61565b604082019050919050565b60006020820190508181036000830152610eec81610eb0565b9050919050565b6000604082019050610f086000830185610b12565b610f156020830184610b12565b9392505050565b7f627579657220646964206e6f7420617070726f7665207468697320636f6e747260008201527f6163740000000000000000000000000000000000000000000000000000000000602082015250565b6000610f78602383610cff565b9150610f8382610f1c565b604082019050919050565b60006020820190508181036000830152610fa781610f6b565b9050919050565b7f63616c6c657220617070726f7665206c65737320616d6f756e74206f6620746f60008201527f6b656e0000000000000000000000000000000000000000000000000000000000602082015250565b600061100a602383610cff565b915061101582610fae565b604082019050919050565b6000602082019050818103600083015261103981610ffd565b9050919050565b7f57726f6e67207072696365000000000000000000000000000000000000000000600082015250565b6000611076600b83610cff565b915061108182611040565b602082019050919050565b600060208201905081810360008301526110a581611069565b9050919050565b6110b581610bb6565b81146110c057600080fd5b50565b6000815190506110d2816110ac565b92915050565b6000602082840312156110ee576110ed610ca1565b5b60006110fc848285016110c3565b91505092915050565b600060408201905061111a6000830185610b12565b6111276020830184610bf6565b939250505056fea26469706673582212207e91dfedcbc8366ec9f0fc53ac626373880696a69a9590a86021f9831d6a157964736f6c63430008100033a264697066735822122082c188b3bd579913a50250a08ec036c05ed79b84449cea2bb7ffdd8a93e48a8f64736f6c63430008100033",
  "immutableReferences": {},
  "source": "// SPDX-License-Identifier: MIT\r\npragma solidity ^0.8.4;\r\n\r\nimport \"./access/Ownable.sol\";\r\nimport \"./token/ERC20/ERC20.sol\";\r\nimport \"./token/ERC721/ERC721.sol\";\r\nimport \"./JavToken.sol\";\r\nimport \"./JAV_NFT.sol\";\r\n\r\n/**\r\n * PJT  - Req.1-SC1 SaleFactory \r\n *    ,      .\r\n */\r\ncontract SaleFactory is Ownable {\r\n\r\n    address public admin; // ,  \r\n    address[] public sales; // \r\n    mapping(uint256=>address) saleContractAddress;  // id -> Salecontract address \r\n    JAV_NFT public NFTcreatorContract;\r\n\r\n    event NewSale(\r\n        address indexed _saleContract,\r\n        address indexed _owner,\r\n        uint256 _workId\r\n    );\r\n\r\n    constructor(address _NFTcreatorAddress) {\r\n        admin = msg.sender;\r\n        NFTcreatorContract = JAV_NFT(_NFTcreatorAddress);\r\n    }\r\n\r\n    /**\r\n     * @dev   . \r\n     */\r\n    //  \r\n    function createSale(\r\n        uint256 itemId, //  NFT_ID\r\n        // uint256 minPrice,   //(  )\r\n        uint256 purchasePrice,  //\r\n        // uint256 startTime,  //   \r\n        // uint256 endTime,    //   \r\n        address currencyAddress,    //ERC-20 \r\n        address nftAddress  // NFT  \r\n    ) public returns (address) {\r\n        // TODO\r\n        address seller = msg.sender;    //   \r\n        Sale instance = new Sale(admin, seller, itemId, purchasePrice, currencyAddress, nftAddress);\r\n        //   tokenid    \r\n        // NFTcreatorContract.saleApprovalForAll(seller);\r\n        NFTcreatorContract.approve(address(instance), itemId);\r\n        NFTcreatorContract.transferFrom(seller, address(instance), itemId);\r\n        // return instance;\r\n        // emit NewSale(_saleContract, _owner, _workId);\r\n        sales.push(address(instance));\r\n        saleContractAddress[itemId] = address(instance);\r\n        emit NewSale(address(instance), msg.sender, itemId);\r\n        return address(instance);\r\n    }\r\n\r\n    //  Sale  \r\n    function allSales() public view returns (address[] memory) {\r\n        return sales;\r\n    }\r\n\r\n    function getSaleContractAddress(uint256 tokenId) public view returns (address) {\r\n        require(saleContractAddress[tokenId] != address(0), \"this token is not on sale.\");\r\n        return saleContractAddress[tokenId];\r\n    }\r\n}\r\n\r\n/**\r\n *  PJT  - Req.1-SC2) Sale \r\n */\r\n /**\r\n    \r\n(constructor), (bid), (purchase), (confirmItem), (cancel) \r\n   bid(), purchase() \r\n     confirmItem()   ERC-20  NFT   .\r\n */\r\ncontract Sale {\r\n    //    \r\n    address public seller;  // \r\n    address public buyer;   // \r\n    address admin;  // \r\n    // uint256 public saleStartTime;   //  \r\n    // uint256 public saleEndTime;     //   \r\n    // uint256 public minPrice;    // (  )\r\n    uint256 public purchasePrice;   // \r\n    uint256 public tokenId; //  NFT tokenId\r\n    address public currencyAddress; //   ERC-20(JavToken) \r\n    address public nftAddress;  // nft creator (NFT  )\r\n    bool public ended;  //   \r\n\r\n    //    \r\n    // address public highestBidder;   //  \r\n    // uint256 public highestBid;  //  \r\n\r\n    // IERC20 public erc20Contract; //  \r\n    // IERC721 public erc721Constract; // \r\n    JavToken public JavTokenContract;\r\n    JAV_NFT public NFTcreatorContract;\r\n\r\n    // event HighestBidIncereased(address bidder, uint256 amount); //        \r\n    event SaleEnded(address winner, uint256 amount);    //   ( , ,  event )\r\n    //   , ,   \r\n    constructor(\r\n        address _admin,\r\n        address _seller,\r\n        uint256 _tokenId,\r\n        // uint256 _minPrice,\r\n        uint256 _purchasePrice,\r\n        // uint256 startTime,\r\n        // uint256 endTime,\r\n        address _currencyAddress,\r\n        address _nftAddress\r\n    ) {\r\n        // require(_minPrice > 0);\r\n        require(_purchasePrice > 0); //     \r\n        tokenId = _tokenId;\r\n        // minPrice = _minPrice;\r\n        purchasePrice = _purchasePrice;\r\n        seller = _seller;\r\n        admin = _admin;\r\n        // saleStartTime = startTime;\r\n        // saleEndTime = endTime;\r\n        currencyAddress = _currencyAddress;\r\n        nftAddress = _nftAddress;\r\n        ended = false;\r\n        JavTokenContract = JavToken(_currencyAddress);\r\n        NFTcreatorContract = JAV_NFT(_nftAddress);     // SSFTokenContract = SSFToken(_currencyAddress);\r\n    }\r\n    //   \r\n    // function bid(uint256 bid_amount) public {\r\n    //     // TODO\r\n    // }\r\n    //  \r\n    //   address buyer , buyer = msg.sender.\r\n    function purchase(uint256 purchase_amount) public {\r\n        // TODO \r\n        require(msg.sender != seller, \"seller can't call this function\");\r\n        // require(block.timestamp < saleEndTime, \"Sale time has expired\");\r\n        require(JavTokenContract.balanceOf(msg.sender) >= purchase_amount, \"buyer do not have enough ERC20 token\");\r\n        require(JavTokenContract.allowance(msg.sender, address(this)) != 0, \"buyer did not approve this contract\");\r\n        require(JavTokenContract.allowance(msg.sender, address(this)) >= purchase_amount, \"caller approve less amount of token\");\r\n        require(purchase_amount == purchasePrice, \"Wrong price\");\r\n        buyer = msg.sender;\r\n        JavTokenContract.transferFrom(buyer, seller, purchase_amount);\r\n        NFTcreatorContract.transferFrom(address(this), buyer, tokenId);\r\n        emit SaleEnded(buyer, purchase_amount);\r\n        _end();\r\n    }\r\n    //     \r\n    // function confirmItem() public {\r\n    //     // TODO \r\n    // }\r\n    //   \r\n    function cancelSales() public {\r\n        // TODO\r\n        // require(block.timestamp < saleEndTime, \"Sale time has expired\");\r\n        require(msg.sender == seller || msg.sender == admin, \"caller is not approved\");\r\n        // NFT   \r\n        NFTcreatorContract.transferFrom(address(this), seller, tokenId);\r\n        _end();\r\n    }\r\n    //    \r\n    // function getTimeLeft() public view returns (int256) {\r\n    //     return (int256)(saleEndTime - block.timestamp);\r\n    // }\r\n    //  \r\n    function getSaleInfo()\r\n        public\r\n        view\r\n        returns (\r\n            // uint256,\r\n            // uint256,\r\n            // uint256,\r\n            uint256,\r\n            uint256,\r\n            // address,\r\n            // uint256,\r\n            address,\r\n            address\r\n        )\r\n    {\r\n        return (\r\n            // saleStartTime,\r\n            // saleEndTime,\r\n            // minPrice,\r\n            purchasePrice,\r\n            tokenId,\r\n            // highestBidder,\r\n            // highestBid,\r\n            currencyAddress,\r\n            nftAddress\r\n        );\r\n    }\r\n    //     \r\n    // function getHighestBid() public view returns(uint256){\r\n    //     return highestBid;\r\n    // }\r\n\r\n    // internal  private     _  .\r\n    //  \r\n    function _end() internal {\r\n        ended = true;\r\n    }\r\n    //  \r\n    function _getCurrencyAmount() private view returns (uint256) {\r\n        return JavTokenContract.balanceOf(msg.sender);\r\n    }\r\n\r\n    // modifier       .\r\n    // modifier = >      function x() public onlySeller returns(bool){} \r\n    modifier onlySeller() {\r\n        require(msg.sender == seller, \"Sale: You are not seller.\");\r\n        _;\r\n    }\r\n    // \r\n    // modifier onlyAfterStart() {\r\n    //     require(\r\n    //         block.timestamp >= saleStartTime,\r\n    //         \"Sale: This sale is not started.\"\r\n    //     );\r\n    //     _;\r\n    // }\r\n}\r\n",
  "sourcePath": "C:\\Users\\\\Desktop\\SSAFY_\\sub-pjt2\\S07P22C108\\smart-contracts\\contracts\\SaleFactory.sol",
  "compiler": {
    "name": "solc",
    "version": "0.8.16+commit.07a7930e.Emscripten.clang"
  },
  "schemaVersion": "3.4.9",
  "updatedAt": "2022-09-26T13:37:25.541Z",
  "networkType": "ethereum",
  "devdoc": {
    "kind": "dev",
    "methods": {
      "createSale(uint256,uint256,address,address)": {
        "details": "  . "
      },
      "owner()": {
        "details": "Returns the address of the current owner."
      },
      "renounceOwnership()": {
        "details": "Leaves the contract without owner. It will not be possible to call `onlyOwner` functions anymore. Can only be called by the current owner. NOTE: Renouncing ownership will leave the contract without an owner, thereby removing any functionality that is only available to the owner."
      },
      "transferOwnership(address)": {
        "details": "Transfers ownership of the contract to a new account (`newOwner`). Can only be called by the current owner."
      }
    },
    "version": 1
  },
  "userdoc": {
    "kind": "user",
    "methods": {},
    "notice": "PJT  - Req.1-SC1 SaleFactory     ,      .",
    "version": 1
  }
}