{
  "contractName": "Sale",
  "abi": [
    {
      "inputs": [
        {
          "internalType": "address",
          "name": "_admin",
          "type": "address"
        },
        {
          "internalType": "address",
          "name": "_seller",
          "type": "address"
        },
        {
          "internalType": "uint256",
          "name": "_tokenId",
          "type": "uint256"
        },
        {
          "internalType": "uint256",
          "name": "_purchasePrice",
          "type": "uint256"
        },
        {
          "internalType": "address",
          "name": "_currencyAddress",
          "type": "address"
        },
        {
          "internalType": "address",
          "name": "_nftAddress",
          "type": "address"
        }
      ],
      "stateMutability": "nonpayable",
      "type": "constructor"
    },
    {
      "anonymous": false,
      "inputs": [
        {
          "indexed": false,
          "internalType": "address",
          "name": "winner",
          "type": "address"
        },
        {
          "indexed": false,
          "internalType": "uint256",
          "name": "amount",
          "type": "uint256"
        }
      ],
      "name": "SaleEnded",
      "type": "event"
    },
    {
      "inputs": [],
      "name": "JavTokenContract",
      "outputs": [
        {
          "internalType": "contract JavToken",
          "name": "",
          "type": "address"
        }
      ],
      "stateMutability": "view",
      "type": "function"
    },
    {
      "inputs": [],
      "name": "NFTcreatorContract",
      "outputs": [
        {
          "internalType": "contract JAV_NFT",
          "name": "",
          "type": "address"
        }
      ],
      "stateMutability": "view",
      "type": "function"
    },
    {
      "inputs": [],
      "name": "buyer",
      "outputs": [
        {
          "internalType": "address",
          "name": "",
          "type": "address"
        }
      ],
      "stateMutability": "view",
      "type": "function"
    },
    {
      "inputs": [],
      "name": "currencyAddress",
      "outputs": [
        {
          "internalType": "address",
          "name": "",
          "type": "address"
        }
      ],
      "stateMutability": "view",
      "type": "function"
    },
    {
      "inputs": [],
      "name": "ended",
      "outputs": [
        {
          "internalType": "bool",
          "name": "",
          "type": "bool"
        }
      ],
      "stateMutability": "view",
      "type": "function"
    },
    {
      "inputs": [],
      "name": "nftAddress",
      "outputs": [
        {
          "internalType": "address",
          "name": "",
          "type": "address"
        }
      ],
      "stateMutability": "view",
      "type": "function"
    },
    {
      "inputs": [],
      "name": "purchasePrice",
      "outputs": [
        {
          "internalType": "uint256",
          "name": "",
          "type": "uint256"
        }
      ],
      "stateMutability": "view",
      "type": "function"
    },
    {
      "inputs": [],
      "name": "seller",
      "outputs": [
        {
          "internalType": "address",
          "name": "",
          "type": "address"
        }
      ],
      "stateMutability": "view",
      "type": "function"
    },
    {
      "inputs": [],
      "name": "tokenId",
      "outputs": [
        {
          "internalType": "uint256",
          "name": "",
          "type": "uint256"
        }
      ],
      "stateMutability": "view",
      "type": "function"
    },
    {
      "inputs": [
        {
          "internalType": "uint256",
          "name": "purchase_amount",
          "type": "uint256"
        }
      ],
      "name": "purchase",
      "outputs": [],
      "stateMutability": "nonpayable",
      "type": "function"
    },
    {
      "inputs": [],
      "name": "cancelSales",
      "outputs": [],
      "stateMutability": "nonpayable",
      "type": "function"
    },
    {
      "inputs": [],
      "name": "getSaleInfo",
      "outputs": [
        {
          "internalType": "uint256",
          "name": "",
          "type": "uint256"
        },
        {
          "internalType": "uint256",
          "name": "",
          "type": "uint256"
        },
        {
          "internalType": "address",
          "name": "",
          "type": "address"
        },
        {
          "internalType": "address",
          "name": "",
          "type": "address"
        }
      ],
      "stateMutability": "view",
      "type": "function"
    }
  ],
  "bytecode": "0x60806040523480156200001157600080fd5b50604051620014b4380380620014b48339818101604052810190620000379190620002a4565b600083116200004557600080fd5b8360048190555082600381905550846000806101000a81548173ffffffffffffffffffffffffffffffffffffffff021916908373ffffffffffffffffffffffffffffffffffffffff16021790555085600260006101000a81548173ffffffffffffffffffffffffffffffffffffffff021916908373ffffffffffffffffffffffffffffffffffffffff16021790555081600560006101000a81548173ffffffffffffffffffffffffffffffffffffffff021916908373ffffffffffffffffffffffffffffffffffffffff16021790555080600660006101000a81548173ffffffffffffffffffffffffffffffffffffffff021916908373ffffffffffffffffffffffffffffffffffffffff1602179055506000600660146101000a81548160ff02191690831515021790555081600760006101000a81548173ffffffffffffffffffffffffffffffffffffffff021916908373ffffffffffffffffffffffffffffffffffffffff16021790555080600860006101000a81548173ffffffffffffffffffffffffffffffffffffffff021916908373ffffffffffffffffffffffffffffffffffffffff16021790555050505050505062000340565b600080fd5b600073ffffffffffffffffffffffffffffffffffffffff82169050919050565b6000620002318262000204565b9050919050565b620002438162000224565b81146200024f57600080fd5b50565b600081519050620002638162000238565b92915050565b6000819050919050565b6200027e8162000269565b81146200028a57600080fd5b50565b6000815190506200029e8162000273565b92915050565b60008060008060008060c08789031215620002c457620002c3620001ff565b5b6000620002d489828a0162000252565b9650506020620002e789828a0162000252565b9550506040620002fa89828a016200028d565b94505060606200030d89828a016200028d565b93505060806200032089828a0162000252565b92505060a06200033389828a0162000252565b9150509295509295509295565b61116480620003506000396000f3fe608060405234801561001057600080fd5b50600436106100b45760003560e01c80637150d8ae116100715780637150d8ae1461016d578063903e329c1461018b578063d1ae16da14610195578063db83694c146101b3578063defd6c5f146101d4578063efef39a1146101f2576100b4565b806308551a53146100b957806308aab230146100d757806312fa6feb146100f557806317d70f7c146101135780631c1cb323146101315780635bf8633a1461014f575b600080fd5b6100c161020e565b6040516100ce9190610b21565b60405180910390f35b6100df610232565b6040516100ec9190610b9b565b60405180910390f35b6100fd610258565b60405161010a9190610bd1565b60405180910390f35b61011b61026b565b6040516101289190610c05565b60405180910390f35b610139610271565b6040516101469190610b21565b60405180910390f35b610157610297565b6040516101649190610b21565b60405180910390f35b6101756102bd565b6040516101829190610b21565b60405180910390f35b6101936102e3565b005b61019d610486565b6040516101aa9190610c41565b60405180910390f35b6101bb6104ac565b6040516101cb9493929190610c5c565b60405180910390f35b6101dc61050c565b6040516101e99190610c05565b60405180910390f35b61020c60048036038101906102079190610cd2565b610512565b005b60008054906101000a900473ffffffffffffffffffffffffffffffffffffffff1681565b600860009054906101000a900473ffffffffffffffffffffffffffffffffffffffff1681565b600660149054906101000a900460ff1681565b60045481565b600560009054906101000a900473ffffffffffffffffffffffffffffffffffffffff1681565b600660009054906101000a900473ffffffffffffffffffffffffffffffffffffffff1681565b600160009054906101000a900473ffffffffffffffffffffffffffffffffffffffff1681565b60008054906101000a900473ffffffffffffffffffffffffffffffffffffffff1673ffffffffffffffffffffffffffffffffffffffff163373ffffffffffffffffffffffffffffffffffffffff16148061038a5750600260009054906101000a900473ffffffffffffffffffffffffffffffffffffffff1673ffffffffffffffffffffffffffffffffffffffff163373ffffffffffffffffffffffffffffffffffffffff16145b6103c9576040517f08c379a00000000000000000000000000000000000000000000000000000000081526004016103c090610d5c565b60405180910390fd5b600860009054906101000a900473ffffffffffffffffffffffffffffffffffffffff1673ffffffffffffffffffffffffffffffffffffffff166323b872dd3060008054906101000a900473ffffffffffffffffffffffffffffffffffffffff166004546040518463ffffffff1660e01b815260040161044a93929190610d7c565b600060405180830381600087803b15801561046457600080fd5b505af1158015610478573d6000803e3d6000fd5b50505050610484610ac3565b565b600760009054906101000a900473ffffffffffffffffffffffffffffffffffffffff1681565b600080600080600354600454600560009054906101000a900473ffffffffffffffffffffffffffffffffffffffff16600660009054906101000a900473ffffffffffffffffffffffffffffffffffffffff16935093509350935090919293565b60035481565b60008054906101000a900473ffffffffffffffffffffffffffffffffffffffff1673ffffffffffffffffffffffffffffffffffffffff163373ffffffffffffffffffffffffffffffffffffffff16036105a0576040517f08c379a000000000000000000000000000000000000000000000000000000000815260040161059790610dff565b60405180910390fd5b80600760009054906101000a900473ffffffffffffffffffffffffffffffffffffffff1673ffffffffffffffffffffffffffffffffffffffff166370a08231336040518263ffffffff1660e01b81526004016105fc9190610b21565b602060405180830381865afa158015610619573d6000803e3d6000fd5b505050506040513d601f19601f8201168201806040525081019061063d9190610e34565b101561067e576040517f08c379a000000000000000000000000000000000000000000000000000000000815260040161067590610ed3565b60405180910390fd5b6000600760009054906101000a900473ffffffffffffffffffffffffffffffffffffffff1673ffffffffffffffffffffffffffffffffffffffff1663dd62ed3e33306040518363ffffffff1660e01b81526004016106dd929190610ef3565b602060405180830381865afa1580156106fa573d6000803e3d6000fd5b505050506040513d601f19601f8201168201806040525081019061071e9190610e34565b0361075e576040517f08c379a000000000000000000000000000000000000000000000000000000000815260040161075590610f8e565b60405180910390fd5b80600760009054906101000a900473ffffffffffffffffffffffffffffffffffffffff1673ffffffffffffffffffffffffffffffffffffffff1663dd62ed3e33306040518363ffffffff1660e01b81526004016107bc929190610ef3565b602060405180830381865afa1580156107d9573d6000803e3d6000fd5b505050506040513d601f19601f820116820180604052508101906107fd9190610e34565b101561083e576040517f08c379a000000000000000000000000000000000000000000000000000000000815260040161083590611020565b60405180910390fd5b6003548114610882576040517f08c379a00000000000000000000000000000000000000000000000000000000081526004016108799061108c565b60405180910390fd5b33600160006101000a81548173ffffffffffffffffffffffffffffffffffffffff021916908373ffffffffffffffffffffffffffffffffffffffff160217905550600760009054906101000a900473ffffffffffffffffffffffffffffffffffffffff1673ffffffffffffffffffffffffffffffffffffffff166323b872dd600160009054906101000a900473ffffffffffffffffffffffffffffffffffffffff1660008054906101000a900473ffffffffffffffffffffffffffffffffffffffff16846040518463ffffffff1660e01b815260040161096493929190610d7c565b6020604051808303816000875af1158015610983573d6000803e3d6000fd5b505050506040513d601f19601f820116820180604052508101906109a791906110d8565b50600860009054906101000a900473ffffffffffffffffffffffffffffffffffffffff1673ffffffffffffffffffffffffffffffffffffffff166323b872dd30600160009054906101000a900473ffffffffffffffffffffffffffffffffffffffff166004546040518463ffffffff1660e01b8152600401610a2b93929190610d7c565b600060405180830381600087803b158015610a4557600080fd5b505af1158015610a59573d6000803e3d6000fd5b505050507f349f939aaa1895cee67485b264474f0d2a1aac01083917b8ea9f96e4036cbb27600160009054906101000a900473ffffffffffffffffffffffffffffffffffffffff1682604051610ab0929190611105565b60405180910390a1610ac0610ac3565b50565b6001600660146101000a81548160ff021916908315150217905550565b600073ffffffffffffffffffffffffffffffffffffffff82169050919050565b6000610b0b82610ae0565b9050919050565b610b1b81610b00565b82525050565b6000602082019050610b366000830184610b12565b92915050565b6000819050919050565b6000610b61610b5c610b5784610ae0565b610b3c565b610ae0565b9050919050565b6000610b7382610b46565b9050919050565b6000610b8582610b68565b9050919050565b610b9581610b7a565b82525050565b6000602082019050610bb06000830184610b8c565b92915050565b60008115159050919050565b610bcb81610bb6565b82525050565b6000602082019050610be66000830184610bc2565b92915050565b6000819050919050565b610bff81610bec565b82525050565b6000602082019050610c1a6000830184610bf6565b92915050565b6000610c2b82610b68565b9050919050565b610c3b81610c20565b82525050565b6000602082019050610c566000830184610c32565b92915050565b6000608082019050610c716000830187610bf6565b610c7e6020830186610bf6565b610c8b6040830185610b12565b610c986060830184610b12565b95945050505050565b600080fd5b610caf81610bec565b8114610cba57600080fd5b50565b600081359050610ccc81610ca6565b92915050565b600060208284031215610ce857610ce7610ca1565b5b6000610cf684828501610cbd565b91505092915050565b600082825260208201905092915050565b7f63616c6c6572206973206e6f7420617070726f76656400000000000000000000600082015250565b6000610d46601683610cff565b9150610d5182610d10565b602082019050919050565b60006020820190508181036000830152610d7581610d39565b9050919050565b6000606082019050610d916000830186610b12565b610d9e6020830185610b12565b610dab6040830184610bf6565b949350505050565b7f73656c6c65722063616e27742063616c6c20746869732066756e6374696f6e00600082015250565b6000610de9601f83610cff565b9150610df482610db3565b602082019050919050565b60006020820190508181036000830152610e1881610ddc565b9050919050565b600081519050610e2e81610ca6565b92915050565b600060208284031215610e4a57610e49610ca1565b5b6000610e5884828501610e1f565b91505092915050565b7f627579657220646f206e6f74206861766520656e6f756768204552433230207460008201527f6f6b656e00000000000000000000000000000000000000000000000000000000602082015250565b6000610ebd602483610cff565b9150610ec882610e61565b604082019050919050565b60006020820190508181036000830152610eec81610eb0565b9050919050565b6000604082019050610f086000830185610b12565b610f156020830184610b12565b9392505050565b7f627579657220646964206e6f7420617070726f7665207468697320636f6e747260008201527f6163740000000000000000000000000000000000000000000000000000000000602082015250565b6000610f78602383610cff565b9150610f8382610f1c565b604082019050919050565b60006020820190508181036000830152610fa781610f6b565b9050919050565b7f63616c6c657220617070726f7665206c65737320616d6f756e74206f6620746f60008201527f6b656e0000000000000000000000000000000000000000000000000000000000602082015250565b600061100a602383610cff565b915061101582610fae565b604082019050919050565b6000602082019050818103600083015261103981610ffd565b9050919050565b7f57726f6e67207072696365000000000000000000000000000000000000000000600082015250565b6000611076600b83610cff565b915061108182611040565b602082019050919050565b600060208201905081810360008301526110a581611069565b9050919050565b6110b581610bb6565b81146110c057600080fd5b50565b6000815190506110d2816110ac565b92915050565b6000602082840312156110ee576110ed610ca1565b5b60006110fc848285016110c3565b91505092915050565b600060408201905061111a6000830185610b12565b6111276020830184610bf6565b939250505056fea26469706673582212207e91dfedcbc8366ec9f0fc53ac626373880696a69a9590a86021f9831d6a157964736f6c63430008100033",
  "immutableReferences": {},
  "source": "// SPDX-License-Identifier: MIT\r\npragma solidity ^0.8.4;\r\n\r\nimport \"./access/Ownable.sol\";\r\nimport \"./token/ERC20/ERC20.sol\";\r\nimport \"./token/ERC721/ERC721.sol\";\r\nimport \"./JavToken.sol\";\r\nimport \"./JAV_NFT.sol\";\r\n\r\n/**\r\n * PJT  - Req.1-SC1 SaleFactory \r\n *    ,      .\r\n */\r\ncontract SaleFactory is Ownable {\r\n\r\n    address public admin; // ,  \r\n    address[] public sales; // \r\n    mapping(uint256=>address) saleContractAddress;  // id -> Salecontract address \r\n    JAV_NFT public NFTcreatorContract;\r\n\r\n    event NewSale(\r\n        address indexed _saleContract,\r\n        address indexed _owner,\r\n        uint256 _workId\r\n    );\r\n\r\n    constructor(address _NFTcreatorAddress) {\r\n        admin = msg.sender;\r\n        NFTcreatorContract = JAV_NFT(_NFTcreatorAddress);\r\n    }\r\n\r\n    /**\r\n     * @dev   . \r\n     */\r\n    //  \r\n    function createSale(\r\n        uint256 itemId, //  NFT_ID\r\n        // uint256 minPrice,   //(  )\r\n        uint256 purchasePrice,  //\r\n        // uint256 startTime,  //   \r\n        // uint256 endTime,    //   \r\n        address currencyAddress,    //ERC-20 \r\n        address nftAddress  // NFT  \r\n    ) public returns (address) {\r\n        // TODO\r\n        address seller = msg.sender;    //   \r\n        Sale instance = new Sale(admin, seller, itemId, purchasePrice, currencyAddress, nftAddress);\r\n        //   tokenid    \r\n        // NFTcreatorContract.saleApprovalForAll(seller);\r\n        NFTcreatorContract.approve(address(instance), itemId);\r\n        NFTcreatorContract.transferFrom(seller, address(instance), itemId);\r\n        // return instance;\r\n        // emit NewSale(_saleContract, _owner, _workId);\r\n        sales.push(address(instance));\r\n        saleContractAddress[itemId] = address(instance);\r\n        emit NewSale(address(instance), msg.sender, itemId);\r\n        return address(instance);\r\n    }\r\n\r\n    //  Sale  \r\n    function allSales() public view returns (address[] memory) {\r\n        return sales;\r\n    }\r\n\r\n    function getSaleContractAddress(uint256 tokenId) public view returns (address) {\r\n        require(saleContractAddress[tokenId] != address(0), \"this token is not on sale.\");\r\n        return saleContractAddress[tokenId];\r\n    }\r\n}\r\n\r\n/**\r\n *  PJT  - Req.1-SC2) Sale \r\n */\r\n /**\r\n    \r\n(constructor), (bid), (purchase), (confirmItem), (cancel) \r\n   bid(), purchase() \r\n     confirmItem()   ERC-20  NFT   .\r\n */\r\ncontract Sale {\r\n    //    \r\n    address public seller;  // \r\n    address public buyer;   // \r\n    address admin;  // \r\n    // uint256 public saleStartTime;   //  \r\n    // uint256 public saleEndTime;     //   \r\n    // uint256 public minPrice;    // (  )\r\n    uint256 public purchasePrice;   // \r\n    uint256 public tokenId; //  NFT tokenId\r\n    address public currencyAddress; //   ERC-20(JavToken) \r\n    address public nftAddress;  // nft creator (NFT  )\r\n    bool public ended;  //   \r\n\r\n    //    \r\n    // address public highestBidder;   //  \r\n    // uint256 public highestBid;  //  \r\n\r\n    // IERC20 public erc20Contract; //  \r\n    // IERC721 public erc721Constract; // \r\n    JavToken public JavTokenContract;\r\n    JAV_NFT public NFTcreatorContract;\r\n\r\n    // event HighestBidIncereased(address bidder, uint256 amount); //        \r\n    event SaleEnded(address winner, uint256 amount);    //   ( , ,  event )\r\n    //   , ,   \r\n    constructor(\r\n        address _admin,\r\n        address _seller,\r\n        uint256 _tokenId,\r\n        // uint256 _minPrice,\r\n        uint256 _purchasePrice,\r\n        // uint256 startTime,\r\n        // uint256 endTime,\r\n        address _currencyAddress,\r\n        address _nftAddress\r\n    ) {\r\n        // require(_minPrice > 0);\r\n        require(_purchasePrice > 0); //     \r\n        tokenId = _tokenId;\r\n        // minPrice = _minPrice;\r\n        purchasePrice = _purchasePrice;\r\n        seller = _seller;\r\n        admin = _admin;\r\n        // saleStartTime = startTime;\r\n        // saleEndTime = endTime;\r\n        currencyAddress = _currencyAddress;\r\n        nftAddress = _nftAddress;\r\n        ended = false;\r\n        JavTokenContract = JavToken(_currencyAddress);\r\n        NFTcreatorContract = JAV_NFT(_nftAddress);     // SSFTokenContract = SSFToken(_currencyAddress);\r\n    }\r\n    //   \r\n    // function bid(uint256 bid_amount) public {\r\n    //     // TODO\r\n    // }\r\n    //  \r\n    //   address buyer , buyer = msg.sender.\r\n    function purchase(uint256 purchase_amount) public {\r\n        // TODO \r\n        require(msg.sender != seller, \"seller can't call this function\");\r\n        // require(block.timestamp < saleEndTime, \"Sale time has expired\");\r\n        require(JavTokenContract.balanceOf(msg.sender) >= purchase_amount, \"buyer do not have enough ERC20 token\");\r\n        require(JavTokenContract.allowance(msg.sender, address(this)) != 0, \"buyer did not approve this contract\");\r\n        require(JavTokenContract.allowance(msg.sender, address(this)) >= purchase_amount, \"caller approve less amount of token\");\r\n        require(purchase_amount == purchasePrice, \"Wrong price\");\r\n        buyer = msg.sender;\r\n        JavTokenContract.transferFrom(buyer, seller, purchase_amount);\r\n        NFTcreatorContract.transferFrom(address(this), buyer, tokenId);\r\n        emit SaleEnded(buyer, purchase_amount);\r\n        _end();\r\n    }\r\n    //     \r\n    // function confirmItem() public {\r\n    //     // TODO \r\n    // }\r\n    //   \r\n    function cancelSales() public {\r\n        // TODO\r\n        // require(block.timestamp < saleEndTime, \"Sale time has expired\");\r\n        require(msg.sender == seller || msg.sender == admin, \"caller is not approved\");\r\n        // NFT   \r\n        NFTcreatorContract.transferFrom(address(this), seller, tokenId);\r\n        _end();\r\n    }\r\n    //    \r\n    // function getTimeLeft() public view returns (int256) {\r\n    //     return (int256)(saleEndTime - block.timestamp);\r\n    // }\r\n    //  \r\n    function getSaleInfo()\r\n        public\r\n        view\r\n        returns (\r\n            // uint256,\r\n            // uint256,\r\n            // uint256,\r\n            uint256,\r\n            uint256,\r\n            // address,\r\n            // uint256,\r\n            address,\r\n            address\r\n        )\r\n    {\r\n        return (\r\n            // saleStartTime,\r\n            // saleEndTime,\r\n            // minPrice,\r\n            purchasePrice,\r\n            tokenId,\r\n            // highestBidder,\r\n            // highestBid,\r\n            currencyAddress,\r\n            nftAddress\r\n        );\r\n    }\r\n    //     \r\n    // function getHighestBid() public view returns(uint256){\r\n    //     return highestBid;\r\n    // }\r\n\r\n    // internal  private     _  .\r\n    //  \r\n    function _end() internal {\r\n        ended = true;\r\n    }\r\n    //  \r\n    function _getCurrencyAmount() private view returns (uint256) {\r\n        return JavTokenContract.balanceOf(msg.sender);\r\n    }\r\n\r\n    // modifier       .\r\n    // modifier = >      function x() public onlySeller returns(bool){} \r\n    modifier onlySeller() {\r\n        require(msg.sender == seller, \"Sale: You are not seller.\");\r\n        _;\r\n    }\r\n    // \r\n    // modifier onlyAfterStart() {\r\n    //     require(\r\n    //         block.timestamp >= saleStartTime,\r\n    //         \"Sale: This sale is not started.\"\r\n    //     );\r\n    //     _;\r\n    // }\r\n}\r\n",
  "sourcePath": "C:\\Users\\\\Desktop\\SSAFY_\\sub-pjt2\\S07P22C108\\smart-contracts\\contracts\\SaleFactory.sol",
  "compiler": {
    "name": "solc",
    "version": "0.8.16+commit.07a7930e.Emscripten.clang"
  },
  "schemaVersion": "3.4.9",
  "updatedAt": "2022-09-26T13:37:01.137Z",
  "devdoc": {
    "kind": "dev",
    "methods": {},
    "version": 1
  },
  "userdoc": {
    "kind": "user",
    "methods": {},
    "notice": "     (constructor), (bid), (purchase), (confirmItem), (cancel)     bid(), purchase()       confirmItem()   ERC-20  NFT   .",
    "version": 1
  }
}