{
  "contractName": "gene",
  "abi": [
    {
      "inputs": [],
      "name": "gacha",
      "outputs": [
        {
          "internalType": "uint256",
          "name": "",
          "type": "uint256"
        }
      ],
      "stateMutability": "view",
      "type": "function"
    },
    {
      "inputs": [
        {
          "internalType": "uint256",
          "name": "_geneX",
          "type": "uint256"
        },
        {
          "internalType": "uint256",
          "name": "_geneY",
          "type": "uint256"
        }
      ],
      "name": "fusion",
      "outputs": [
        {
          "internalType": "uint256",
          "name": "",
          "type": "uint256"
        }
      ],
      "stateMutability": "view",
      "type": "function"
    },
    {
      "inputs": [],
      "name": "getAcce1",
      "outputs": [
        {
          "internalType": "uint256",
          "name": "",
          "type": "uint256"
        }
      ],
      "stateMutability": "view",
      "type": "function"
    },
    {
      "inputs": [],
      "name": "getAcce2",
      "outputs": [
        {
          "internalType": "uint256",
          "name": "",
          "type": "uint256"
        }
      ],
      "stateMutability": "view",
      "type": "function"
    },
    {
      "inputs": [],
      "name": "getAcce3",
      "outputs": [
        {
          "internalType": "uint256",
          "name": "",
          "type": "uint256"
        }
      ],
      "stateMutability": "view",
      "type": "function"
    },
    {
      "inputs": [],
      "name": "getAcce4",
      "outputs": [
        {
          "internalType": "uint256",
          "name": "",
          "type": "uint256"
        }
      ],
      "stateMutability": "view",
      "type": "function"
    }
  ],
  "bytecode": "0x60806040526040518060e00160405280600160ff168152602001600160ff168152602001600160ff168152602001600160ff168152602001600660ff168152602001600660ff168152602001601860ff1681525060009060076200006592919062000128565b506040518060600160405280600260ff168152602001600260ff168152602001600160ff1681525060079060036200009f92919062000172565b506040518060600160405280600160ff168152602001600160ff168152602001600160ff16815250600a906003620000d992919062000172565b506040518060600160405280600160ff168152602001600160ff168152602001600160ff16815250600d9060036200011392919062000172565b503480156200012157600080fd5b50620001db565b82600781019282156200015f579160200282015b828111156200015e578251829060ff169055916020019190600101906200013c565b5b5090506200016e9190620001bc565b5090565b8260038101928215620001a9579160200282015b82811115620001a8578251829060ff1690559160200191906001019062000186565b5b509050620001b89190620001bc565b5090565b5b80821115620001d7576000816000905550600101620001bd565b5090565b6117ca80620001eb6000396000f3fe608060405234801561001057600080fd5b50600436106100625760003560e01c80632c6792b51461006757806365a8a037146100855780636642a36e146100b5578063948142bb146100d3578063a71069f4146100f1578063f186dc341461010f575b600080fd5b61006f61012d565b60405161007c9190611355565b60405180910390f35b61009f600480360381019061009a91906113a1565b6101ce565b6040516100ac9190611355565b60405180910390f35b6100bd610592565b6040516100ca9190611355565b60405180910390f35b6100db610633565b6040516100e89190611355565b60405180910390f35b6100f9610882565b6040516101069190611355565b60405180910390f35b610117610923565b6040516101249190611355565b60405180910390f35b6000806064426040516020016101439190611402565b6040516020818303038152906040528051906020012060001c610166919061144c565b90506000600190505b600e8110156101c857600d60648261018791906114ac565b6101919190611506565b8210156101b5576000816103006101a89190611537565b90508093505050506101cb565b80806101c09061156b565b91505061016f565b50505b90565b60006101d861131a565b6101e061131a565b60006064426040516020016101f59190611402565b6040516020818303038152906040528051906020012060001c610218919061144c565b9050600060648260405160200161022f9190611402565b6040516020818303038152906040528051906020012060001c610252919061144c565b905060006064826040516020016102699190611402565b6040516020818303038152906040528051906020012060001c61028c919061144c565b905060006064826040516020016102a39190611402565b6040516020818303038152906040528051906020012060001c6102c6919061144c565b90506000600190505b600160076102dd9190611537565b8110156103d55760036001826102f391906115b3565b6102fd91906114ac565b60038261030a91906114ac565b61031491906115b3565b6010610320919061171a565b8a61032b919061144c565b8760018361033991906115b3565b6007811061034a57610349611765565b5b602002018181525050600360018261036291906115b3565b61036c91906114ac565b60038261037991906114ac565b61038391906115b3565b601061038f919061171a565b8961039a919061144c565b866001836103a891906115b3565b600781106103b9576103b8611765565b5b60200201818152505080806103cd9061156b565b9150506102cf565b5060006103e287866109c4565b905060006103f087866109c4565b905060006103ff838387610a53565b9050600061040c85611185565b9050600066010000000000008a60066007811061042c5761042b611765565b5b602002015161043b91906114ac565b6710000000000000008c60066007811061045857610457611765565b5b602002015161046791906114ac565b69010000000000000000008561047d91906114ac565b6a10000000000000000000008561049491906114ac565b61049e9190611537565b6104a89190611537565b6104b29190611537565b9050600060018b6004600781106104cc576104cb611765565b5b60200201516104db91906114ac565b6110008c6005600781106104f2576104f1611765565b5b602002015161050191906114ac565b63010000008e60046007811061051a57610519611765565b5b602002015161052991906114ac565b6410000000008f60056007811061054357610542611765565b5b602002015161055291906114ac565b8561055d9190611537565b6105679190611537565b6105719190611537565b61057b9190611537565b9050809c5050505050505050505050505092915050565b6000806064426040516020016105a89190611402565b6040516020818303038152906040528051906020012060001c6105cb919061144c565b90506000600190505b600d81101561062d57600c6064826105ec91906114ac565b6105f69190611506565b82101561061a5760008161020061060d9190611537565b9050809350505050610630565b80806106259061156b565b9150506105d4565b50505b90565b6000806064426040516020016106499190611402565b6040516020818303038152906040528051906020012060001c61066c919061144c565b905060006064826040516020016106839190611402565b6040516020818303038152906040528051906020012060001c6106a6919061144c565b905060006064826040516020016106bd9190611402565b6040516020818303038152906040528051906020012060001c6106e0919061144c565b905060006064826040516020016106f79190611402565b6040516020818303038152906040528051906020012060001c61071a919061144c565b905060006064826040516020016107319190611402565b6040516020818303038152906040528051906020012060001c610754919061144c565b9050600061076186611185565b9050600061076e86611208565b9050600061077b86611208565b9050600061078886611208565b9050600061079586611208565b905060006001826107a691906114ac565b611000856107b491906114ac565b6301000000856107c491906114ac565b641000000000886107d591906114ac565b6601000000000000886107e891906114ac565b6710000000000000008a6107fc91906114ac565b69010000000000000000008b61081291906114ac565b6a10000000000000000000008d61082991906114ac565b6108339190611537565b61083d9190611537565b6108479190611537565b6108519190611537565b61085b9190611537565b6108659190611537565b61086f9190611537565b9050809b50505050505050505050505090565b6000806064426040516020016108989190611402565b6040516020818303038152906040528051906020012060001c6108bb919061144c565b90506000600190505b601181101561091d5760106064826108dc91906114ac565b6108e69190611506565b82101561090a576000816101006108fd9190611537565b9050809350505050610920565b80806109159061156b565b9150506108c4565b50505b90565b6000806064426040516020016109399190611402565b6040516020818303038152906040528051906020012060001c61095c919061144c565b90506000600190505b600d8110156109be57600c60648261097d91906114ac565b6109879190611506565b8210156109ab5760008161040061099e9190611537565b90508093505050506109c1565b80806109b69061156b565b915050610965565b50505b90565b60008060005b6007811015610a4a57600081600781106109e7576109e6611765565b5b0154826109f49190611537565b91506028606483610a0591906114ac565b610a0f9190611506565b841015610a3757848160078110610a2957610a28611765565b5b602002015192505050610a4d565b8080610a429061156b565b9150506109ca565b50505b92915050565b600060018403610b535760018303610a9c57600060405180606001604052808681526020018581526020018581525090506000610a90828561128b565b9050809250505061117e565b60028303610adc5760006040518060600160405280868152602001858152602001600481525090506000610ad0828561128b565b9050809250505061117e565b60038303610b1c5760006040518060600160405280868152602001858152602001600581525090506000610b10828561128b565b9050809250505061117e565b600060405180606001604052808581526020018581526020018681525090506000610b47828561128b565b9050809250505061117e565b60028403610c515760018303610b9b5760006040518060600160405280868152602001858152602001600481525090506000610b8f828561128b565b9050809250505061117e565b60028303610bda57600060405180606001604052808681526020018581526020018581525090506000610bce828561128b565b9050809250505061117e565b60038303610c1a5760006040518060600160405280868152602001858152602001600681525090506000610c0e828561128b565b9050809250505061117e565b600060405180606001604052808581526020018581526020018681525090506000610c45828561128b565b9050809250505061117e565b60038403610d4f5760018303610c995760006040518060600160405280868152602001858152602001600581525090506000610c8d828561128b565b9050809250505061117e565b60028303610cd95760006040518060600160405280868152602001858152602001600681525090506000610ccd828561128b565b9050809250505061117e565b60038303610d1857600060405180606001604052808681526020018581526020018581525090506000610d0c828561128b565b9050809250505061117e565b600060405180606001604052808581526020018581526020018681525090506000610d43828561128b565b9050809250505061117e565b60048403610ea3576001831480610d665750600283145b80610d715750600383145b15610dad57600060405180606001604052808681526020018681526020018581525090506000610da1828561128b565b9050809250505061117e565b60048303610dec57600060405180606001604052808681526020018581526020018581525090506000610de0828561128b565b9050809250505061117e565b60058303610e2c5760006040518060600160405280868152602001858152602001600781525090506000610e20828561128b565b9050809250505061117e565b60068303610e6c5760006040518060600160405280868152602001858152602001600881525090506000610e60828561128b565b9050809250505061117e565b600060405180606001604052808581526020018581526020018681525090506000610e97828561128b565b9050809250505061117e565b60058403610ff7576001831480610eba5750600283145b80610ec55750600383145b15610f0157600060405180606001604052808681526020018681526020018581525090506000610ef5828561128b565b9050809250505061117e565b60048303610f415760006040518060600160405280868152602001858152602001600781525090506000610f35828561128b565b9050809250505061117e565b60058303610f8057600060405180606001604052808681526020018581526020018581525090506000610f74828561128b565b9050809250505061117e565b60068303610fc05760006040518060600160405280868152602001858152602001600981525090506000610fb4828561128b565b9050809250505061117e565b600060405180606001604052808581526020018581526020018681525090506000610feb828561128b565b9050809250505061117e565b6006840361114b57600183148061100e5750600283145b806110195750600383145b1561105557600060405180606001604052808681526020018681526020018581525090506000611049828561128b565b9050809250505061117e565b600483036110955760006040518060600160405280868152602001858152602001600881525090506000611089828561128b565b9050809250505061117e565b600583036110d557600060405180606001604052808681526020018581526020016009815250905060006110c9828561128b565b9050809250505061117e565b6006830361111457600060405180606001604052808681526020018581526020018581525090506000611108828561128b565b9050809250505061117e565b60006040518060600160405280858152602001858152602001868152509050600061113f828561128b565b9050809250505061117e565b600060405180606001604052808581526020018581526020018681525090506000611176828561128b565b905080925050505b9392505050565b60008060005b600381101561120057600a81600381106111a8576111a7611765565b5b0154826111b59190611537565b915060036064836111c691906114ac565b6111d09190611506565b8410156111ed576001816111e49190611537565b92505050611203565b80806111f89061156b565b91505061118b565b50505b919050565b60008060005b600381101561128357600d816003811061122b5761122a611765565b5b0154826112389190611537565b9150600360648361124991906114ac565b6112539190611506565b841015611270576001816112679190611537565b92505050611286565b808061127b9061156b565b91505061120e565b50505b919050565b60008060005b600381101561131157600781600381106112ae576112ad611765565b5b0154826112bb9190611537565b915060056064836112cc91906114ac565b6112d69190611506565b8410156112fe578481600381106112f0576112ef611765565b5b602002015192505050611314565b80806113099061156b565b915050611291565b50505b92915050565b6040518060e00160405280600790602082028036833780820191505090505090565b6000819050919050565b61134f8161133c565b82525050565b600060208201905061136a6000830184611346565b92915050565b600080fd5b61137e8161133c565b811461138957600080fd5b50565b60008135905061139b81611375565b92915050565b600080604083850312156113b8576113b7611370565b5b60006113c68582860161138c565b92505060206113d78582860161138c565b9150509250929050565b6000819050919050565b6113fc6113f78261133c565b6113e1565b82525050565b600061140e82846113eb565b60208201915081905092915050565b7f4e487b7100000000000000000000000000000000000000000000000000000000600052601260045260246000fd5b60006114578261133c565b91506114628361133c565b9250826114725761147161141d565b5b828206905092915050565b7f4e487b7100000000000000000000000000000000000000000000000000000000600052601160045260246000fd5b60006114b78261133c565b91506114c28361133c565b9250817fffffffffffffffffffffffffffffffffffffffffffffffffffffffffffffffff04831182151516156114fb576114fa61147d565b5b828202905092915050565b60006115118261133c565b915061151c8361133c565b92508261152c5761152b61141d565b5b828204905092915050565b60006115428261133c565b915061154d8361133c565b92508282019050808211156115655761156461147d565b5b92915050565b60006115768261133c565b91507fffffffffffffffffffffffffffffffffffffffffffffffffffffffffffffffff82036115a8576115a761147d565b5b600182019050919050565b60006115be8261133c565b91506115c98361133c565b92508282039050818111156115e1576115e061147d565b5b92915050565b60008160011c9050919050565b6000808291508390505b600185111561163e5780860481111561161a5761161961147d565b5b60018516156116295780820291505b8081029050611637856115e7565b94506115fe565b94509492505050565b6000826116575760019050611713565b816116655760009050611713565b816001811461167b5760028114611685576116b4565b6001915050611713565b60ff8411156116975761169661147d565b5b8360020a9150848211156116ae576116ad61147d565b5b50611713565b5060208310610133831016604e8410600b84101617156116e95782820a9050838111156116e4576116e361147d565b5b611713565b6116f684848460016115f4565b9250905081840481111561170d5761170c61147d565b5b81810290505b9392505050565b60006117258261133c565b91506117308361133c565b925061175d7fffffffffffffffffffffffffffffffffffffffffffffffffffffffffffffffff8484611647565b905092915050565b7f4e487b7100000000000000000000000000000000000000000000000000000000600052603260045260246000fdfea264697066735822122019f6d430eb7140d44529054f28d3896f77d0f7e2fe4cfef1449ed9e68cae745764736f6c63430008100033",
  "immutableReferences": {},
  "source": "// SPDX-License-Identifier: MIT\r\npragma solidity ^0.8.4;\r\n\r\ncontract gene{\r\n\r\n    uint[7] weight = [1, 1, 1, 1, 6, 6, 24];\r\n    uint[3] fusionWeight = [2, 2, 1];\r\n    uint[3] colorWeight = [1, 1, 1];\r\n    uint[3] gachaWeight = [1, 1, 1];\r\n\r\n    function gacha() public view returns (uint) {\r\n\r\n        uint random = uint(keccak256(abi.encodePacked(block.timestamp))) % 100;\r\n        uint random2 = uint(keccak256(abi.encodePacked(random))) % 100;\r\n        uint random3 = uint(keccak256(abi.encodePacked(random2))) % 100;\r\n        uint random4 = uint(keccak256(abi.encodePacked(random3))) % 100;\r\n        uint random5 = uint(keccak256(abi.encodePacked(random4))) % 100;\r\n\r\n        uint color = _colorPicker(random);\r\n        uint self = _gacha(random2);\r\n        uint mother = _gacha(random3);\r\n        uint fatherMother = _gacha(random4);\r\n        uint motherMother = _gacha(random5);\r\n        \r\n        uint myGene = color * (16 ** 21)\r\n        + self * (16 ** 18)\r\n        + self * (16 ** 15)\r\n        + mother * (16 ** 12)\r\n        + self * (16 ** 9)\r\n        + fatherMother * (16 ** 6)\r\n        + mother * (16 ** 3)\r\n        + motherMother * (16 ** 0);\r\n\r\n        return myGene;\r\n    }\r\n\r\n    function fusion(uint _geneX, uint _geneY) public view returns (uint) {\r\n        uint[7] memory arrayX;\r\n        uint[7] memory arrayY;\r\n        uint random = uint(keccak256(abi.encodePacked(block.timestamp))) % 100;\r\n        uint random2 = uint(keccak256(abi.encodePacked(random))) % 100;\r\n        uint random3 = uint(keccak256(abi.encodePacked(random2))) % 100;\r\n        uint random4 = uint(keccak256(abi.encodePacked(random3))) % 100;\r\n\r\n        for (uint i = 1; i < weight.length + 1; i++) {\r\n            arrayX[i-1] = _geneX % (16 ** ((i * 3) - (i - 1) * 3));\r\n            arrayY[i-1] = _geneY % (16 ** ((i * 3) - (i - 1) * 3));\r\n        }\r\n\r\n        uint winX = _winner(arrayX, random);\r\n        uint winY = _winner(arrayY, random2);\r\n\r\n        uint winZ = _fusion(winX, winY, random3);\r\n        uint color = _colorPicker(random4);\r\n        \r\n        uint childTemp = color * (16 ** 21)\r\n        + winZ * (16 ** 18)\r\n        + arrayX[6] * (16 ** 15)\r\n        + arrayY[6] * (16 ** 12);\r\n\r\n        uint child = childTemp\r\n        + arrayX[5] * (16 ** 9)\r\n        + arrayX[4] * (16 ** 6)\r\n        + arrayY[5] * (16 ** 3)\r\n        + arrayY[4] * (16 ** 0);\r\n        \r\n        return child;\r\n    }\r\n\r\n    function getAcce1() public view returns (uint) {\r\n      uint random = uint(keccak256(abi.encodePacked(block.timestamp))) % 100;\r\n\r\n      for (uint i = 1; i < 17; i++) {\r\n          if (random < i * 100 / 16) {\r\n            uint acce = 16 ** 2 + i;\r\n            return acce;\r\n          }\r\n      }\r\n    }\r\n\r\n    function getAcce2() public view returns (uint) {\r\n      uint random = uint(keccak256(abi.encodePacked(block.timestamp))) % 100;\r\n\r\n      for (uint i = 1; i < 13; i++) {\r\n          if (random < i * 100 / 12) {\r\n            uint acce = 2 * (16 ** 2) + i;\r\n            return acce;\r\n          }\r\n      }\r\n    }\r\n\r\n    function getAcce3() public view returns (uint) {\r\n      uint random = uint(keccak256(abi.encodePacked(block.timestamp))) % 100;\r\n\r\n      for (uint i = 1; i < 14; i++) {\r\n          if (random < i * 100 / 13) {\r\n            uint acce = 3 * (16 ** 2) + i;\r\n            return acce;\r\n          }\r\n      }\r\n    }\r\n\r\n    function getAcce4() public view returns (uint) {\r\n      uint random = uint(keccak256(abi.encodePacked(block.timestamp))) % 100;\r\n\r\n      for (uint i = 1; i < 13; i++) {\r\n          if (random < i * 100 / 12) {\r\n            uint acce = 4 * (16 ** 2) + i;\r\n            return acce;\r\n          }\r\n      }\r\n    }\r\n\r\n    function _winner(uint[7] memory _array, uint _random) private view returns (uint) {\r\n        uint weightSum;\r\n\r\n        for (uint i = 0; i < 7; i++) {\r\n            weightSum += weight[i];\r\n\r\n            if (_random < weightSum * 100 / 40) {\r\n                return _array[i];\r\n            }\r\n        }\r\n    }\r\n\r\n    function _fusion(uint x, uint y, uint _random) private view returns (uint) {\r\n        if (x == 0x001) {\r\n            if (y == 0x001) {\r\n                uint[3] memory fusionArray = [x, y, y];\r\n                uint res = _fusionWinner(fusionArray, _random);\r\n                return res;\r\n            } else if (y == 0x002) {\r\n                uint[3] memory fusionArray = [x, y, 0x004];\r\n                uint res = _fusionWinner(fusionArray, _random);\r\n                return res;\r\n            } else if (y == 0x003) {\r\n                uint[3] memory fusionArray = [x, y, 0x005];\r\n                uint res = _fusionWinner(fusionArray, _random);\r\n                return res;\r\n            } else {\r\n                uint[3] memory fusionArray = [y, y, x];\r\n                uint res = _fusionWinner(fusionArray, _random);\r\n                return res;\r\n            }\r\n        } else if (x == 0x002) {\r\n            if (y == 0x001) {\r\n                uint[3] memory fusionArray = [x, y, 0x004];\r\n                uint res = _fusionWinner(fusionArray, _random);\r\n                return res;\r\n            } else if (y == 0x002) {\r\n                uint[3] memory fusionArray = [x, y, y];\r\n                uint res = _fusionWinner(fusionArray, _random);\r\n                return res;\r\n            } else if (y == 0x003) {\r\n                uint[3] memory fusionArray = [x, y, 0x006];\r\n                uint res = _fusionWinner(fusionArray, _random);\r\n                return res;\r\n            } else {\r\n                uint[3] memory fusionArray = [y, y, x];\r\n                uint res = _fusionWinner(fusionArray, _random);\r\n                return res;\r\n            }\r\n        } else if (x == 0x003) {\r\n            if (y == 0x001) {\r\n                uint[3] memory fusionArray = [x, y, 0x005];\r\n                uint res = _fusionWinner(fusionArray, _random);\r\n                return res;\r\n            } else if (y == 0x002) {\r\n                uint[3] memory fusionArray = [x, y, 0x006];\r\n                uint res = _fusionWinner(fusionArray, _random);\r\n                return res;\r\n            } else if (y == 0x003) {\r\n                uint[3] memory fusionArray = [x, y, y];\r\n                uint res = _fusionWinner(fusionArray, _random);\r\n                return res;\r\n            } else {\r\n                uint[3] memory fusionArray = [y, y, x];\r\n                uint res = _fusionWinner(fusionArray, _random);\r\n                return res;\r\n            }\r\n        } else if (x == 0x004) {\r\n            if (y == 0x001 || y == 0x002 || y == 0x003) {\r\n                uint[3] memory fusionArray = [x, x, y];\r\n                uint res = _fusionWinner(fusionArray, _random);\r\n                return res;\r\n            } else if (y == 0x004) {\r\n                uint[3] memory fusionArray = [x, y, y];\r\n                uint res = _fusionWinner(fusionArray, _random);\r\n                return res;\r\n            } else if (y == 0x005) {\r\n                uint[3] memory fusionArray = [x, y, 0x007];\r\n                uint res = _fusionWinner(fusionArray, _random);\r\n                return res;\r\n            } else if (y == 0x006) {\r\n                uint[3] memory fusionArray = [x, y, 0x008];\r\n                uint res = _fusionWinner(fusionArray, _random);\r\n                return res;\r\n            } else {\r\n                uint[3] memory fusionArray = [y, y, x];\r\n                uint res = _fusionWinner(fusionArray, _random);\r\n                return res;\r\n            }\r\n        } else if (x == 0x005) {\r\n            if (y == 0x001 || y == 0x002 || y == 0x003) {\r\n                uint[3] memory fusionArray = [x, x, y];\r\n                uint res = _fusionWinner(fusionArray, _random);\r\n                return res;\r\n            } else if (y == 0x004) {\r\n                uint[3] memory fusionArray = [x, y, 0x007];\r\n                uint res = _fusionWinner(fusionArray, _random);\r\n                return res;\r\n            } else if (y == 0x005) {\r\n                uint[3] memory fusionArray = [x, y, y];\r\n                uint res = _fusionWinner(fusionArray, _random);\r\n                return res;\r\n            } else if (y == 0x006) {\r\n                uint[3] memory fusionArray = [x, y, 0x009];\r\n                uint res = _fusionWinner(fusionArray, _random);\r\n                return res;\r\n            } else {\r\n                uint[3] memory fusionArray = [y, y, x];\r\n                uint res = _fusionWinner(fusionArray, _random);\r\n                return res;\r\n            }\r\n        } else if (x == 0x006) {\r\n            if (y == 0x001 || y == 0x002 || y == 0x003) {\r\n                uint[3] memory fusionArray = [x, x, y];\r\n                uint res = _fusionWinner(fusionArray, _random);\r\n                return res;\r\n            } else if (y == 0x004) {\r\n                uint[3] memory fusionArray = [x, y, 0x008];\r\n                uint res = _fusionWinner(fusionArray, _random);\r\n                return res;\r\n            } else if (y == 0x005) {\r\n                uint[3] memory fusionArray = [x, y, 0x009];\r\n                uint res = _fusionWinner(fusionArray, _random);\r\n                return res;\r\n            } else if (y == 0x006) {\r\n                uint[3] memory fusionArray = [x, y, y];\r\n                uint res = _fusionWinner(fusionArray, _random);\r\n                return res;\r\n            } else {\r\n                uint[3] memory fusionArray = [y, y, x];\r\n                uint res = _fusionWinner(fusionArray, _random);\r\n                return res;\r\n            }\r\n        } else {\r\n            uint[3] memory fusionArray = [y, y, x];\r\n            uint res = _fusionWinner(fusionArray, _random);\r\n            return res;\r\n        }\r\n    }\r\n\r\n    function _fusionWinner(uint[3] memory _array, uint _random) private view returns (uint) {\r\n        uint weightSum;\r\n\r\n        for (uint i = 0; i < 3; i++) {\r\n            weightSum += fusionWeight[i];\r\n\r\n            if (_random < weightSum * 100 / 5) {\r\n                return _array[i];\r\n            }\r\n        }\r\n    }\r\n\r\n    function _colorPicker(uint _random) private view returns (uint) {\r\n        uint weightSum;\r\n\r\n        for (uint i = 0; i < 3; i++) {\r\n            weightSum += colorWeight[i];\r\n\r\n            if (_random < weightSum * 100 / 3) {\r\n                return i + 1;\r\n            }\r\n        }\r\n    }\r\n\r\n    function _gacha(uint _random) private view returns (uint) {\r\n        uint weightSum;\r\n\r\n        for (uint i = 0; i < 3; i++) {\r\n            weightSum += gachaWeight[i];\r\n\r\n            if (_random < weightSum * 100 / 3) {\r\n                return i + 1;\r\n            }\r\n        }\r\n    }\r\n}",
  "sourcePath": "C:\\Users\\\\Desktop\\SSAFY_\\sub-pjt2\\S07P22C108\\smart-contracts\\contracts\\Gene.sol",
  "compiler": {
    "name": "solc",
    "version": "0.8.16+commit.07a7930e.Emscripten.clang"
  },
  "schemaVersion": "3.4.9",
  "updatedAt": "2022-09-26T13:37:01.088Z",
  "devdoc": {
    "kind": "dev",
    "methods": {},
    "version": 1
  },
  "userdoc": {
    "kind": "user",
    "methods": {},
    "version": 1
  }
}